{
  "contractName": "DataDappContract",
  "abi": [
    {
      "anonymous": false,
      "inputs": [
        {
          "indexed": false,
          "internalType": "bool",
          "name": "_isRegistered",
          "type": "bool"
        }
      ],
      "name": "Check",
      "type": "event"
    },
    {
      "anonymous": false,
      "inputs": [
        {
          "indexed": false,
          "internalType": "address",
          "name": "requester",
          "type": "address"
        }
      ],
      "name": "DepositEvent",
      "type": "event"
    },
    {
      "anonymous": false,
      "inputs": [
        {
          "indexed": false,
          "internalType": "string",
          "name": "_id",
          "type": "string"
        }
      ],
      "name": "Register",
      "type": "event"
    },
    {
      "anonymous": false,
      "inputs": [
        {
          "indexed": false,
          "internalType": "address",
          "name": "requester",
          "type": "address"
        }
      ],
      "name": "ReturnMoneyEvent",
      "type": "event"
    },
    {
      "anonymous": false,
      "inputs": [
        {
          "components": [
            {
              "internalType": "string",
              "name": "reviewer",
              "type": "string"
            },
            {
              "internalType": "uint8",
              "name": "rating",
              "type": "uint8"
            },
            {
              "internalType": "bytes32",
              "name": "comments",
              "type": "bytes32"
            }
          ],
          "indexed": false,
          "internalType": "struct DataDappContract.Review",
          "name": "review",
          "type": "tuple"
        }
      ],
      "name": "ReviewResult",
      "type": "event"
    },
    {
      "anonymous": false,
      "inputs": [
        {
          "indexed": false,
          "internalType": "address",
          "name": "requester",
          "type": "address"
        },
        {
          "indexed": false,
          "internalType": "bytes32",
          "name": "sampleRequestId",
          "type": "bytes32"
        },
        {
          "indexed": false,
          "internalType": "bytes32[]",
          "name": "sampleRequestData",
          "type": "bytes32[]"
        },
        {
          "indexed": false,
          "internalType": "uint256",
          "name": "index",
          "type": "uint256"
        }
      ],
      "name": "SampleRequestResult",
      "type": "event"
    },
    {
      "anonymous": false,
      "inputs": [
        {
          "indexed": false,
          "internalType": "address",
          "name": "requester",
          "type": "address"
        }
      ],
      "name": "SendMoneyEvent",
      "type": "event"
    },
    {
      "anonymous": false,
      "inputs": [
        {
          "indexed": false,
          "internalType": "bytes32",
          "name": "index",
          "type": "bytes32"
        }
      ],
      "name": "Test",
      "type": "event"
    },
    {
      "anonymous": false,
      "inputs": [
        {
          "indexed": false,
          "internalType": "uint256",
          "name": "index",
          "type": "uint256"
        }
      ],
      "name": "Test2",
      "type": "event"
    },
    {
      "anonymous": false,
      "inputs": [
        {
          "components": [
            {
              "internalType": "address",
              "name": "ownerAddress",
              "type": "address"
            },
            {
              "internalType": "bytes32[]",
              "name": "ipfsHashes",
              "type": "bytes32[]"
            }
          ],
          "indexed": false,
          "internalType": "struct DataDappContract.UploadPacket",
          "name": "upload",
          "type": "tuple"
        }
      ],
      "name": "UploadResult",
      "type": "event"
    },
    {
      "inputs": [
        {
          "internalType": "bytes32",
          "name": "",
          "type": "bytes32"
        }
      ],
      "name": "deposits",
      "outputs": [
        {
          "internalType": "uint256",
          "name": "",
          "type": "uint256"
        }
      ],
      "stateMutability": "view",
      "type": "function",
      "constant": true
    },
    {
      "inputs": [
        {
          "internalType": "string",
          "name": "_id",
          "type": "string"
        }
      ],
      "name": "getRegisterUsers",
      "outputs": [],
      "stateMutability": "nonpayable",
      "type": "function"
    },
    {
      "inputs": [
        {
          "internalType": "bytes32",
          "name": "",
          "type": "bytes32"
        }
      ],
      "name": "purchases",
      "outputs": [
        {
          "internalType": "bytes32",
          "name": "packetId",
          "type": "bytes32"
        },
        {
          "internalType": "address",
          "name": "requesterAddress",
          "type": "address"
        }
      ],
      "stateMutability": "view",
      "type": "function",
      "constant": true
    },
    {
      "inputs": [
        {
          "internalType": "string",
          "name": "_id",
          "type": "string"
        }
      ],
      "name": "registerUser",
      "outputs": [],
      "stateMutability": "nonpayable",
      "type": "function"
    },
    {
      "inputs": [
        {
          "internalType": "bytes32",
          "name": "",
          "type": "bytes32"
        }
      ],
      "name": "registeredUsers",
      "outputs": [
        {
          "internalType": "bool",
          "name": "",
          "type": "bool"
        }
      ],
      "stateMutability": "view",
      "type": "function",
      "constant": true
    },
    {
      "inputs": [
        {
          "internalType": "bytes32",
          "name": "",
          "type": "bytes32"
        },
        {
          "internalType": "uint256",
          "name": "",
          "type": "uint256"
        }
      ],
      "name": "reviews",
      "outputs": [
        {
          "internalType": "string",
          "name": "reviewer",
          "type": "string"
        },
        {
          "internalType": "uint8",
          "name": "rating",
          "type": "uint8"
        },
        {
          "internalType": "bytes32",
          "name": "comments",
          "type": "bytes32"
        }
      ],
      "stateMutability": "view",
      "type": "function",
      "constant": true
    },
    {
      "inputs": [
        {
          "internalType": "bytes32",
          "name": "",
          "type": "bytes32"
        },
        {
          "internalType": "uint256",
          "name": "",
          "type": "uint256"
        }
      ],
      "name": "sampleRequests",
      "outputs": [
        {
          "internalType": "bytes32",
          "name": "",
          "type": "bytes32"
        }
      ],
      "stateMutability": "view",
      "type": "function",
      "constant": true
    },
    {
      "inputs": [
        {
          "internalType": "bytes32",
          "name": "",
          "type": "bytes32"
        }
      ],
      "name": "uploads",
      "outputs": [
        {
          "internalType": "address",
          "name": "ownerAddress",
          "type": "address"
        }
      ],
      "stateMutability": "view",
      "type": "function",
      "constant": true
    },
    {
      "stateMutability": "payable",
      "type": "receive",
      "payable": true
    },
    {
      "inputs": [
        {
          "internalType": "string",
          "name": "_userId",
          "type": "string"
        },
        {
          "internalType": "string",
          "name": "_packetId",
          "type": "string"
        },
        {
          "internalType": "string[]",
          "name": "_ipfsHashes",
          "type": "string[]"
        }
      ],
      "name": "addUpload",
      "outputs": [],
      "stateMutability": "nonpayable",
      "type": "function"
    },
    {
      "inputs": [
        {
          "internalType": "string",
          "name": "_packetId",
          "type": "string"
        }
      ],
      "name": "getUploadPacket",
      "outputs": [
        {
          "components": [
            {
              "internalType": "address",
              "name": "ownerAddress",
              "type": "address"
            },
            {
              "internalType": "bytes32[]",
              "name": "ipfsHashes",
              "type": "bytes32[]"
            }
          ],
          "internalType": "struct DataDappContract.UploadPacket",
          "name": "",
          "type": "tuple"
        }
      ],
      "stateMutability": "view",
      "type": "function",
      "constant": true
    },
    {
      "inputs": [
        {
          "internalType": "string",
          "name": "_packetId",
          "type": "string"
        }
      ],
      "name": "getUploadPacketIPFSHashes",
      "outputs": [
        {
          "internalType": "bytes32[]",
          "name": "",
          "type": "bytes32[]"
        }
      ],
      "stateMutability": "view",
      "type": "function",
      "constant": true
    },
    {
      "inputs": [
        {
          "internalType": "string",
          "name": "_packetId",
          "type": "string"
        }
      ],
      "name": "getUploadPacketOwnerAddress",
      "outputs": [
        {
          "internalType": "address",
          "name": "",
          "type": "address"
        }
      ],
      "stateMutability": "view",
      "type": "function",
      "constant": true
    },
    {
      "inputs": [
        {
          "internalType": "string",
          "name": "_requesterId",
          "type": "string"
        },
        {
          "internalType": "string",
          "name": "_packetId",
          "type": "string"
        },
        {
          "internalType": "string[]",
          "name": "_keys",
          "type": "string[]"
        }
      ],
      "name": "addSampleRequest",
      "outputs": [],
      "stateMutability": "nonpayable",
      "type": "function"
    },
    {
      "inputs": [
        {
          "internalType": "bytes32",
          "name": "sampleRequestId",
          "type": "bytes32"
        }
      ],
      "name": "getSampleRequestKeys",
      "outputs": [
        {
          "internalType": "bytes32[]",
          "name": "",
          "type": "bytes32[]"
        }
      ],
      "stateMutability": "view",
      "type": "function",
      "constant": true
    },
    {
      "inputs": [
        {
          "internalType": "string",
          "name": "_ownerId",
          "type": "string"
        },
        {
          "internalType": "string",
          "name": "_packetId",
          "type": "string"
        },
        {
          "internalType": "address",
          "name": "_requesterAddress",
          "type": "address"
        },
        {
          "internalType": "string[]",
          "name": "_keys",
          "type": "string[]"
        },
        {
          "internalType": "uint256",
          "name": "price",
          "type": "uint256"
        },
        {
          "internalType": "bool",
          "name": "_approve",
          "type": "bool"
        }
      ],
      "name": "addPurchase",
      "outputs": [],
      "stateMutability": "nonpayable",
      "type": "function"
    },
    {
      "inputs": [
        {
          "internalType": "string",
          "name": "_packetId",
          "type": "string"
        },
        {
          "internalType": "uint256",
          "name": "_value",
          "type": "uint256"
        }
      ],
      "name": "depositMoney",
      "outputs": [],
      "stateMutability": "payable",
      "type": "function",
      "payable": true
    },
    {
      "inputs": [
        {
          "internalType": "string",
          "name": "_requesterId",
          "type": "string"
        },
        {
          "internalType": "string",
          "name": "_packetId",
          "type": "string"
        }
      ],
      "name": "getPurchaseKeys",
      "outputs": [
        {
          "internalType": "string[]",
          "name": "",
          "type": "string[]"
        }
      ],
      "stateMutability": "view",
      "type": "function",
      "constant": true
    },
    {
      "inputs": [
        {
          "internalType": "string",
          "name": "_rated",
          "type": "string"
        },
        {
          "internalType": "string",
          "name": "_reviewer",
          "type": "string"
        },
        {
          "internalType": "uint8",
          "name": "_rating",
          "type": "uint8"
        },
        {
          "internalType": "string",
          "name": "_comments",
          "type": "string"
        }
      ],
      "name": "addReview",
      "outputs": [],
      "stateMutability": "nonpayable",
      "type": "function"
    },
    {
      "inputs": [
        {
          "internalType": "string",
          "name": "_rated",
          "type": "string"
        }
      ],
      "name": "getReviews",
      "outputs": [
        {
          "components": [
            {
              "internalType": "string",
              "name": "reviewer",
              "type": "string"
            },
            {
              "internalType": "uint8",
              "name": "rating",
              "type": "uint8"
            },
            {
              "internalType": "bytes32",
              "name": "comments",
              "type": "bytes32"
            }
          ],
          "internalType": "struct DataDappContract.Review[]",
          "name": "",
          "type": "tuple[]"
        }
      ],
      "stateMutability": "view",
      "type": "function",
      "constant": true
    },
    {
      "inputs": [
        {
          "internalType": "address",
          "name": "_address",
          "type": "address"
        }
      ],
      "name": "getDeposit",
      "outputs": [],
      "stateMutability": "nonpayable",
      "type": "function"
    }
  ],
  "bytecode": "0x608060405234801561001057600080fd5b50613158806100206000396000f3fe6080604052600436106101235760003560e01c80636bf22a4b116100a0578063c0302cdd11610064578063c0302cdd146104cd578063c137b551146104f6578063d0c588be14610533578063d68557ae14610570578063e1254fba146105ad576101b7565b80636bf22a4b146103d7578063704f1b94146104005780637ab8dbe91461042957806397b130bf146104675780639b5c93cd146104a4576101b7565b80633d4dff7b116100e75780633d4dff7b146102ba578063414f5a0f146102f757806346795df31461032057806349ea4e641461035d57806367c8753b1461039a576101b7565b80631e5d3076146101bc57806327cf74f8146101e55780632978465d146102015780632e85e54a1461023e578063366c6ea41461027b576101b7565b366101b75760003360405160200161013b9190612734565b604051602081830303815290604052805190602001209050346005600083815260200190815260200160002060008282546101769190612c22565b925050819055507f542bc46a4bcbeca72d54cd937a4d9a2de5ea98e96bc562429a07930274b451d7336040516101ac91906127f7565b60405180910390a150005b600080fd5b3480156101c857600080fd5b506101e360048036038101906101de9190612087565b6105d6565b005b6101ff60048036038101906101fa9190612132565b610825565b005b34801561020d57600080fd5b5061022860048036038101906102239190611e72565b6108b8565b60405161023591906128bd565b60405180910390f35b34801561024a57600080fd5b5061026560048036038101906102609190611e72565b610a09565b6040516102729190612a20565b60405180910390f35b34801561028757600080fd5b506102a2600480360381019061029d9190611e36565b610b10565b6040516102b193929190612960565b60405180910390f35b3480156102c657600080fd5b506102e160048036038101906102dc9190611e0d565b610bec565b6040516102ee9190612a64565b60405180910390f35b34801561030357600080fd5b5061031e60048036038101906103199190611f1f565b610c04565b005b34801561032c57600080fd5b5061034760048036038101906103429190611e72565b610e45565b60405161035491906127f7565b60405180910390f35b34801561036957600080fd5b50610384600480360381019061037f9190611eb3565b610eb0565b604051610391919061289b565b60405180910390f35b3480156103a657600080fd5b506103c160048036038101906103bc9190611e36565b61105c565b6040516103ce91906128fa565b60405180910390f35b3480156103e357600080fd5b506103fe60048036038101906103f99190611e72565b61108d565b005b34801561040c57600080fd5b5061042760048036038101906104229190611e72565b61110c565b005b34801561043557600080fd5b50610450600480360381019061044b9190611e0d565b611197565b60405161045e929190612915565b60405180910390f35b34801561047357600080fd5b5061048e60048036038101906104899190611e0d565b6111db565b60405161049b91906127f7565b60405180910390f35b3480156104b057600080fd5b506104cb60048036038101906104c69190611ff0565b611219565b005b3480156104d957600080fd5b506104f460048036038101906104ef9190611ff0565b61140d565b005b34801561050257600080fd5b5061051d60048036038101906105189190611e0d565b611633565b60405161052a9190612879565b60405180910390f35b34801561053f57600080fd5b5061055a60048036038101906105559190611e72565b61169e565b6040516105679190612879565b60405180910390f35b34801561057c57600080fd5b5061059760048036038101906105929190611e0d565b611738565b6040516105a491906128df565b60405180910390f35b3480156105b957600080fd5b506105d460048036038101906105cf9190611de4565b611758565b005b8360011515600080836040516020016105ef919061276a565b60405160208183030381529060405280519060200120815260200190815260200160002060009054906101000a900460ff16151514610663576040517f08c379a000000000000000000000000000000000000000000000000000000000815260040161065a906129de565b60405180910390fd5b83600115156000808360405160200161067c919061276a565b60405160208183030381529060405280519060200120815260200190815260200160002060009054906101000a900460ff161515146106f0576040517f08c379a00000000000000000000000000000000000000000000000000000000081526004016106e7906129de565b60405180910390fd5b600060405180606001604052808781526020018660ff1681526020018560405160200161071d919061276a565b604051602081830303815290604052805190602001208152509050600660008860405160200161074d919061276a565b60405160208183030381529060405280519060200120815260200190815260200160002081908060018154018082558091505060019003906000526020600020906003020160009091909190915060008201518160000190805190602001906107b7929190611b90565b5060208201518160010160006101000a81548160ff021916908360ff1602179055506040820151816002015550507f52b7a5046109bc575df27b04dadaac96f00086418a53ae85d90679f2c275a28f8160405161081491906129fe565b60405180910390a150505050505050565b6000823360405160200161083a929190612781565b604051602081830303815290604052805190602001209050816005600083815260200190815260200160002060008282546108759190612c22565b925050819055507f542bc46a4bcbeca72d54cd937a4d9a2de5ea98e96bc562429a07930274b451d7336040516108ab91906127f7565b60405180910390a1505050565b606060066000836040516020016108cf919061276a565b604051602081830303815290604052805190602001208152602001908152602001600020805480602002602001604051908101604052809291908181526020016000905b828210156109fe578382906000526020600020906003020160405180606001604052908160008201805461094690612dbf565b80601f016020809104026020016040519081016040528092919081815260200182805461097290612dbf565b80156109bf5780601f10610994576101008083540402835291602001916109bf565b820191906000526020600020905b8154815290600101906020018083116109a257829003601f168201915b505050505081526020016001820160009054906101000a900460ff1660ff1660ff16815260200160028201548152505081526020019060010190610913565b505050509050919050565b610a11611c16565b600082604051602001610a24919061276a565b604051602081830303815290604052805190602001209050600160008281526020019081526020016000206040518060400160405290816000820160009054906101000a900473ffffffffffffffffffffffffffffffffffffffff1673ffffffffffffffffffffffffffffffffffffffff1673ffffffffffffffffffffffffffffffffffffffff16815260200160018201805480602002602001604051908101604052809291908181526020018280548015610aff57602002820191906000526020600020905b815481526020019060010190808311610aeb575b505050505081525050915050919050565b60066020528160005260406000208181548110610b2c57600080fd5b906000526020600020906003020160009150915050806000018054610b5090612dbf565b80601f0160208091040260200160405190810160405280929190818152602001828054610b7c90612dbf565b8015610bc95780601f10610b9e57610100808354040283529160200191610bc9565b820191906000526020600020905b815481529060010190602001808311610bac57829003601f168201915b5050505050908060010160009054906101000a900460ff16908060020154905083565b60056020528060005260406000206000915090505481565b856001151560008083604051602001610c1d919061276a565b60405160208183030381529060405280519060200120815260200190815260200160002060009054906101000a900460ff16151514610c91576040517f08c379a0000000000000000000000000000000000000000000000000000000008152600401610c88906129de565b60405180910390fd5b600085604051602001610ca49190612734565b604051602081830303815290604052805190602001209050828015610ccf5750610cce81866117cb565b5b15610e305786604051602001610ce5919061276a565b604051602081830303815290604052805190602001206004600083815260200190815260200160002060000181905550856004600083815260200190815260200160002060010160006101000a81548173ffffffffffffffffffffffffffffffffffffffff021916908373ffffffffffffffffffffffffffffffffffffffff16021790555060005b85518160ff161015610e1f5760046000838152602001908152602001600020600201868260ff1681518110610dcb577f4e487b7100000000000000000000000000000000000000000000000000000000600052603260045260246000fd5b6020026020010151908060018154018082558091505060019003906000526020600020016000909190919091509080519060200190610e0b929190611b90565b508080610e1790612e9f565b915050610d6d565b50610e2b8633866118c5565b610e3b565b610e3a86856119fa565b5b5050505050505050565b60008082604051602001610e59919061276a565b6040516020818303038152906040528051906020012090506001600082815260200190815260200160002060000160009054906101000a900473ffffffffffffffffffffffffffffffffffffffff16915050919050565b6060826001151560008083604051602001610ecb919061276a565b60405160208183030381529060405280519060200120815260200190815260200160002060009054906101000a900460ff16151514610f3f576040517f08c379a0000000000000000000000000000000000000000000000000000000008152600401610f36906129de565b60405180910390fd5b60008333604051602001610f54929190612781565b60405160208183030381529060405280519060200120905060046000828152602001908152602001600020600201805480602002602001604051908101604052809291908181526020016000905b8282101561104e578382906000526020600020018054610fc190612dbf565b80601f0160208091040260200160405190810160405280929190818152602001828054610fed90612dbf565b801561103a5780601f1061100f5761010080835404028352916020019161103a565b820191906000526020600020905b81548152906001019060200180831161101d57829003601f168201915b505050505081526020019060010190610fa2565b505050509250505092915050565b6002602052816000526040600020818154811061107857600080fd5b90600052602060002001600091509150505481565b7f0f806f3a69aebe25b6129d19609333999fb4d2aed709217d19e0465d3bf3e72e600080836040516020016110c2919061276a565b60405160208183030381529060405280519060200120815260200190815260200160002060009054906101000a900460ff1660405161110191906128df565b60405180910390a150565b600160008083604051602001611122919061276a565b60405160208183030381529060405280519060200120815260200190815260200160002060006101000a81548160ff0219169083151502179055507f40b2d3af7e7a908ab771e3b293d2df299bb187d4ac2dcb3dbc2455fdcf5c15dd8160405161118c919061293e565b60405180910390a150565b60046020528060005260406000206000915090508060000154908060010160009054906101000a900473ffffffffffffffffffffffffffffffffffffffff16905082565b60016020528060005260406000206000915090508060000160009054906101000a900473ffffffffffffffffffffffffffffffffffffffff16905081565b826001151560008083604051602001611232919061276a565b60405160208183030381529060405280519060200120815260200190815260200160002060009054906101000a900460ff161515146112a6576040517f08c379a000000000000000000000000000000000000000000000000000000000815260040161129d906129de565b60405180910390fd5b600083336040516020016112bb929190612781565b60405160208183030381529060405280519060200120905060005b83518160ff1610156113985760026000838152602001908152602001600020848260ff1681518110611331577f4e487b7100000000000000000000000000000000000000000000000000000000600052603260045260246000fd5b6020026020010151604051602001611349919061276a565b604051602081830303815290604052805190602001209080600181540180825580915050600190039060005260206000200160009091909190915055808061139090612e9f565b9150506112d6565b507f1779732a1981f451c7bd4f37f56dd5219537791684328746366e95b09f7693be3382600260008581526020019081526020016000206113ee6002600087815260200190815260200160002080549050611b2d565b6040516113fe949392919061282d565b60405180910390a15050505050565b826001151560008083604051602001611426919061276a565b60405160208183030381529060405280519060200120815260200190815260200160002060009054906101000a900460ff1615151461149a576040517f08c379a0000000000000000000000000000000000000000000000000000000008152600401611491906129de565b60405180910390fd5b6000836040516020016114ad919061276a565b604051602081830303815290604052805190602001209050336001600083815260200190815260200160002060000160006101000a81548173ffffffffffffffffffffffffffffffffffffffff021916908373ffffffffffffffffffffffffffffffffffffffff16021790555060005b83518160ff1610156115e25760016000838152602001908152602001600020600101848260ff168151811061157b577f4e487b7100000000000000000000000000000000000000000000000000000000600052603260045260246000fd5b6020026020010151604051602001611593919061276a565b60405160208183030381529060405280519060200120908060018154018082558091505060019003906000526020600020016000909190919091505580806115da90612e9f565b91505061151d565b507fc59c4d1cd4ae4f11cae4ccbb4e183300a420933d7f279b19394c9005352c4f85600160008381526020019081526020016000206040516116249190612a42565b60405180910390a15050505050565b60606002600083815260200190815260200160002080548060200260200160405190810160405280929190818152602001828054801561169257602002820191906000526020600020905b81548152602001906001019080831161167e575b50505050509050919050565b60606000826040516020016116b3919061276a565b6040516020818303038152906040528051906020012090506001600082815260200190815260200160002060010180548060200260200160405190810160405280929190818152602001828054801561172b57602002820191906000526020600020905b815481526020019060010190808311611717575b5050505050915050919050565b60006020528060005260406000206000915054906101000a900460ff1681565b7fcad93688295f9eeb5e46d92afe0e88fb4f43911ecf121efa82e98f7c4385beed600560008360405160200161178e9190612734565b604051602081830303815290604052805190602001208152602001908152602001600020546040516117c09190612a64565b60405180910390a150565b6000806117d784611633565b905060006001905060005b82518160ff1610156118b957848160ff168151811061182a577f4e487b7100000000000000000000000000000000000000000000000000000000600052603260045260246000fd5b6020026020010151604051602001611842919061276a565b60405160208183030381529060405280519060200120838260ff1681518110611894577f4e487b7100000000000000000000000000000000000000000000000000000000600052603260045260246000fd5b6020026020010151146118a657600091505b80806118b190612e9f565b9150506117e2565b50809250505092915050565b6000836040516020016118d89190612734565b6040516020818303038152906040528051906020012090506005600082815260200190815260200160002054821115611946576040517f08c379a000000000000000000000000000000000000000000000000000000000815260040161193d9061299e565b60405180910390fd5b60008290508260056000848152602001908152602001600020600082825461196e9190612c78565b925050819055508373ffffffffffffffffffffffffffffffffffffffff166108fc829081150290604051600060405180830381858888f193505050501580156119bb573d6000803e3d6000fd5b507ff78d9b9160162a84408a458af99dc12d3125949b20e55ea678f03d3b39514d1e846040516119eb9190612812565b60405180910390a15050505050565b600082604051602001611a0d919061274f565b6040516020818303038152906040528051906020012090506005600082815260200190815260200160002054821115611a7b576040517f08c379a0000000000000000000000000000000000000000000000000000000008152600401611a72906129be565b60405180910390fd5b600082905082600560008481526020019081526020016000206000828254611aa39190612c78565b925050819055508373ffffffffffffffffffffffffffffffffffffffff166108fc829081150290604051600060405180830381858888f19350505050158015611af0573d6000803e3d6000fd5b507e111e66581bd1e7becef013b6063b87c8c911c45d23207796d07e4903ae074284604051611b1f9190612812565b60405180910390a150505050565b60008082600354424433604051602001611b4a94939291906127a9565b6040516020818303038152906040528051906020012060001c611b6d9190612f09565b905060036000815480929190611b8290612e56565b919050555080915050919050565b828054611b9c90612dbf565b90600052602060002090601f016020900481019282611bbe5760008555611c05565b82601f10611bd757805160ff1916838001178555611c05565b82800160010185558215611c05579182015b82811115611c04578251825591602001919060010190611be9565b5b509050611c129190611c46565b5090565b6040518060400160405280600073ffffffffffffffffffffffffffffffffffffffff168152602001606081525090565b5b80821115611c5f576000816000905550600101611c47565b5090565b6000611c76611c7184612aa4565b612a7f565b90508083825260208201905082856020860282011115611c9557600080fd5b60005b85811015611cdf57813567ffffffffffffffff811115611cb757600080fd5b808601611cc48982611d90565b85526020850194506020840193505050600181019050611c98565b5050509392505050565b6000611cfc611cf784612ad0565b612a7f565b905082815260208101848484011115611d1457600080fd5b611d1f848285612d7d565b509392505050565b600081359050611d36816130af565b92915050565b600082601f830112611d4d57600080fd5b8135611d5d848260208601611c63565b91505092915050565b600081359050611d75816130c6565b92915050565b600081359050611d8a816130dd565b92915050565b600082601f830112611da157600080fd5b8135611db1848260208601611ce9565b91505092915050565b600081359050611dc9816130f4565b92915050565b600081359050611dde8161310b565b92915050565b600060208284031215611df657600080fd5b6000611e0484828501611d27565b91505092915050565b600060208284031215611e1f57600080fd5b6000611e2d84828501611d7b565b91505092915050565b60008060408385031215611e4957600080fd5b6000611e5785828601611d7b565b9250506020611e6885828601611dba565b9150509250929050565b600060208284031215611e8457600080fd5b600082013567ffffffffffffffff811115611e9e57600080fd5b611eaa84828501611d90565b91505092915050565b60008060408385031215611ec657600080fd5b600083013567ffffffffffffffff811115611ee057600080fd5b611eec85828601611d90565b925050602083013567ffffffffffffffff811115611f0957600080fd5b611f1585828601611d90565b9150509250929050565b60008060008060008060c08789031215611f3857600080fd5b600087013567ffffffffffffffff811115611f5257600080fd5b611f5e89828a01611d90565b965050602087013567ffffffffffffffff811115611f7b57600080fd5b611f8789828a01611d90565b9550506040611f9889828a01611d27565b945050606087013567ffffffffffffffff811115611fb557600080fd5b611fc189828a01611d3c565b9350506080611fd289828a01611dba565b92505060a0611fe389828a01611d66565b9150509295509295509295565b60008060006060848603121561200557600080fd5b600084013567ffffffffffffffff81111561201f57600080fd5b61202b86828701611d90565b935050602084013567ffffffffffffffff81111561204857600080fd5b61205486828701611d90565b925050604084013567ffffffffffffffff81111561207157600080fd5b61207d86828701611d3c565b9150509250925092565b6000806000806080858703121561209d57600080fd5b600085013567ffffffffffffffff8111156120b757600080fd5b6120c387828801611d90565b945050602085013567ffffffffffffffff8111156120e057600080fd5b6120ec87828801611d90565b93505060406120fd87828801611dcf565b925050606085013567ffffffffffffffff81111561211a57600080fd5b61212687828801611d90565b91505092959194509250565b6000806040838503121561214557600080fd5b600083013567ffffffffffffffff81111561215f57600080fd5b61216b85828601611d90565b925050602061217c85828601611dba565b9150509250929050565b600061219283836124a0565b60208301905092915050565b60006121aa83836124be565b905092915050565b60006121be83836125ca565b905092915050565b6121cf81612d47565b82525050565b6121e66121e182612ce8565b612edb565b82525050565b6121f581612cd6565b82525050565b61220481612cd6565b82525050565b61221b61221682612cd6565b612ec9565b82525050565b600061222c82612b46565b6122368185612bb1565b935061224183612b01565b8060005b838110156122725781516122598882612186565b975061226483612b7d565b925050600181019050612245565b5085935050505092915050565b600061228a82612b46565b6122948185612bc2565b935061229f83612b01565b8060005b838110156122d05781516122b78882612186565b97506122c283612b7d565b9250506001810190506122a3565b5085935050505092915050565b60006122e882612b51565b6122f28185612bb1565b93506122fd83612b11565b8060005b838110156123355761231282612ff6565b61231c8882612186565b975061232783612b8a565b925050600181019050612301565b5085935050505092915050565b600061234d82612b51565b6123578185612bc2565b935061236283612b11565b8060005b8381101561239a5761237782612ff6565b6123818882612186565b975061238c83612b8a565b925050600181019050612366565b5085935050505092915050565b60006123b282612b5c565b6123bc8185612bd3565b9350836020820285016123ce85612b26565b8060005b8581101561240a57848403895281516123eb858261219e565b94506123f683612b97565b925060208a019950506001810190506123d2565b50829750879550505050505092915050565b600061242782612b67565b6124318185612be4565b93508360208202850161244385612b36565b8060005b8581101561247f578484038952815161246085826121b2565b945061246b83612ba4565b925060208a01995050600181019050612447565b50829750879550505050505092915050565b61249a81612cfa565b82525050565b6124a981612d06565b82525050565b6124b881612d06565b82525050565b60006124c982612b72565b6124d38185612bf5565b93506124e3818560208601612d8c565b6124ec81613009565b840191505092915050565b600061250282612b72565b61250c8185612c06565b935061251c818560208601612d8c565b61252581613009565b840191505092915050565b600061253b82612b72565b6125458185612c17565b9350612555818560208601612d8c565b80840191505092915050565b600061256e601583612c06565b915061257982613034565b602082019050919050565b6000612591601b83612c06565b915061259c8261305d565b602082019050919050565b60006125b4601683612c06565b91506125bf82613086565b602082019050919050565b600060608301600083015184820360008601526125e782826124be565b91505060208301516125fc6020860182612716565b50604083015161260f60408601826124a0565b508091505092915050565b6000606083016000830151848203600086015261263782826124be565b915050602083015161264c6020860182612716565b50604083015161265f60408601826124a0565b508091505092915050565b600060408301600083015161268260008601826121ec565b506020830151848203602086015261269a8282612221565b9150508091505092915050565b60006040830160008084015490506126be81612df1565b6126cb60008701826121ec565b506001840185830360208701526126e283826122dd565b925050819250505092915050565b6126f981612d30565b82525050565b61271061270b82612d30565b612eff565b82525050565b61271f81612d3a565b82525050565b61272e81612d3a565b82525050565b6000612740828461220a565b60148201915081905092915050565b600061275b82846121d5565b60148201915081905092915050565b60006127768284612530565b915081905092915050565b600061278d8285612530565b9150612799828461220a565b6014820191508190509392505050565b60006127b582876126ff565b6020820191506127c582866126ff565b6020820191506127d582856126ff565b6020820191506127e5828461220a565b60148201915081905095945050505050565b600060208201905061280c60008301846121fb565b92915050565b600060208201905061282760008301846121c6565b92915050565b600060808201905061284260008301876121fb565b61284f60208301866124af565b81810360408301526128618185612342565b905061287060608301846126f0565b95945050505050565b60006020820190508181036000830152612893818461227f565b905092915050565b600060208201905081810360008301526128b581846123a7565b905092915050565b600060208201905081810360008301526128d7818461241c565b905092915050565b60006020820190506128f46000830184612491565b92915050565b600060208201905061290f60008301846124af565b92915050565b600060408201905061292a60008301856124af565b61293760208301846121fb565b9392505050565b6000602082019050818103600083015261295881846124f7565b905092915050565b6000606082019050818103600083015261297a81866124f7565b90506129896020830185612725565b61299660408301846124af565b949350505050565b600060208201905081810360008301526129b781612561565b9050919050565b600060208201905081810360008301526129d781612584565b9050919050565b600060208201905081810360008301526129f7816125a7565b9050919050565b60006020820190508181036000830152612a18818461261a565b905092915050565b60006020820190508181036000830152612a3a818461266a565b905092915050565b60006020820190508181036000830152612a5c81846126a7565b905092915050565b6000602082019050612a7960008301846126f0565b92915050565b6000612a89612a9a565b9050612a958282612e25565b919050565b6000604051905090565b600067ffffffffffffffff821115612abf57612abe612fc7565b5b602082029050602081019050919050565b600067ffffffffffffffff821115612aeb57612aea612fc7565b5b612af482613009565b9050602081019050919050565b6000819050602082019050919050565b60008190508160005260206000209050919050565b6000819050602082019050919050565b6000819050602082019050919050565b600081519050919050565b600081549050919050565b600081519050919050565b600081519050919050565b600081519050919050565b6000602082019050919050565b6000600182019050919050565b6000602082019050919050565b6000602082019050919050565b600082825260208201905092915050565b600082825260208201905092915050565b600082825260208201905092915050565b600082825260208201905092915050565b600082825260208201905092915050565b600082825260208201905092915050565b600081905092915050565b6000612c2d82612d30565b9150612c3883612d30565b9250827fffffffffffffffffffffffffffffffffffffffffffffffffffffffffffffffff03821115612c6d57612c6c612f3a565b5b828201905092915050565b6000612c8382612d30565b9150612c8e83612d30565b925082821015612ca157612ca0612f3a565b5b828203905092915050565b600073ffffffffffffffffffffffffffffffffffffffff82169050919050565b6000819050919050565b6000612ce182612d10565b9050919050565b6000612cf382612d10565b9050919050565b60008115159050919050565b6000819050919050565b600073ffffffffffffffffffffffffffffffffffffffff82169050919050565b6000819050919050565b600060ff82169050919050565b6000612d5282612d59565b9050919050565b6000612d6482612d6b565b9050919050565b6000612d7682612d10565b9050919050565b82818337600083830152505050565b60005b83811015612daa578082015181840152602081019050612d8f565b83811115612db9576000848401525b50505050565b60006002820490506001821680612dd757607f821691505b60208210811415612deb57612dea612f98565b5b50919050565b6000612e04612dff83613027565b612cac565b9050919050565b6000612e1e612e1983613027565b612ccc565b9050919050565b612e2e82613009565b810181811067ffffffffffffffff82111715612e4d57612e4c612fc7565b5b80604052505050565b6000612e6182612d30565b91507fffffffffffffffffffffffffffffffffffffffffffffffffffffffffffffffff821415612e9457612e93612f3a565b5b600182019050919050565b6000612eaa82612d3a565b915060ff821415612ebe57612ebd612f3a565b5b600182019050919050565b6000612ed482612eed565b9050919050565b6000612ee682612eed565b9050919050565b6000612ef88261301a565b9050919050565b6000819050919050565b6000612f1482612d30565b9150612f1f83612d30565b925082612f2f57612f2e612f69565b5b828206905092915050565b7f4e487b7100000000000000000000000000000000000000000000000000000000600052601160045260246000fd5b7f4e487b7100000000000000000000000000000000000000000000000000000000600052601260045260246000fd5b7f4e487b7100000000000000000000000000000000000000000000000000000000600052602260045260246000fd5b7f4e487b7100000000000000000000000000000000000000000000000000000000600052604160045260246000fd5b60006130028254612e0b565b9050919050565b6000601f19601f8301169050919050565b60008160601b9050919050565b60008160001c9050919050565b7f4e6f7420656e6f756768206d6f6e65792073656e740000000000000000000000600082015250565b7f4e6f7420656e6f756768206d6f6e657920696e206465706f7369740000000000600082015250565b7f55736572206973206e6f74207265676973746572656400000000000000000000600082015250565b6130b881612cd6565b81146130c357600080fd5b50565b6130cf81612cfa565b81146130da57600080fd5b50565b6130e681612d06565b81146130f157600080fd5b50565b6130fd81612d30565b811461310857600080fd5b50565b61311481612d3a565b811461311f57600080fd5b5056fea26469706673582212202a682c1f9e9b427b7b08471b7e9d5ac34d78ca3afb5adf3ec2d73347ba1687c864736f6c63430008040033",
  "immutableReferences": {},
  "source": "pragma solidity 0.8.4;\r\n\r\nimport \"./Registry.sol\";\r\n\r\ncontract DataDappContract is Registry {\r\n    //Structs\r\n    struct UploadPacket {\r\n        address ownerAddress;\r\n        bytes32[] ipfsHashes;\r\n    }\r\n\r\n    struct Purchase {\r\n        bytes32 packetId;\r\n        address requesterAddress;\r\n        string[] keys;\r\n    }\r\n\r\n    struct Review {\r\n        string reviewer;\r\n        uint8 rating;\r\n        bytes32 comments;\r\n    }\r\n\r\n    //Mappings\r\n    mapping(bytes32 => UploadPacket) public uploads;\r\n    mapping(bytes32 => bytes32[]) public sampleRequests;\r\n    uint256 nonce;\r\n    mapping(bytes32 => Purchase) public purchases;\r\n    mapping(bytes32 => uint256) public deposits;\r\n    mapping(bytes32 => Review[]) public reviews;\r\n\r\n    //Events\r\n    event UploadResult(UploadPacket upload);\r\n    event SampleRequestResult(\r\n        address requester,\r\n        bytes32 sampleRequestId,\r\n        bytes32[] sampleRequestData,\r\n        uint256 index\r\n    );\r\n    event DepositEvent(address requester);\r\n    event SendMoneyEvent(address requester);\r\n    event ReturnMoneyEvent(address requester);\r\n    event ReviewResult(Review review);\r\n\r\n    event Test(bytes32 index);\r\n    event Test2(uint256 index);\r\n\r\n    //Upload\r\n    function addUpload(\r\n        string memory _userId,\r\n        string memory _packetId,\r\n        string[] memory _ipfsHashes\r\n    ) public registered(_userId) {\r\n        bytes32 index = keccak256(abi.encodePacked(_packetId));\r\n        uploads[index].ownerAddress = msg.sender;\r\n\r\n        for (uint8 i = 0; i < _ipfsHashes.length; i++) {\r\n            uploads[index].ipfsHashes.push(\r\n                keccak256(abi.encodePacked(_ipfsHashes[i]))\r\n            );\r\n        }\r\n\r\n        emit UploadResult(uploads[index]);\r\n    }\r\n\r\n    //Probably Unecessary\r\n    function getUploadPacket(string memory _packetId)\r\n        public\r\n        view\r\n        returns (UploadPacket memory)\r\n    {\r\n        bytes32 index = keccak256(abi.encodePacked(_packetId));\r\n        return uploads[index];\r\n    }\r\n\r\n    //Probably Unecessary\r\n    function getUploadPacketIPFSHashes(string memory _packetId)\r\n        public\r\n        view\r\n        returns (bytes32[] memory)\r\n    {\r\n        bytes32 index = keccak256(abi.encodePacked(_packetId));\r\n        return uploads[index].ipfsHashes;\r\n    }\r\n\r\n    //Probably Unecessary\r\n    function getUploadPacketOwnerAddress(string memory _packetId)\r\n        public\r\n        view\r\n        returns (address)\r\n    {\r\n        bytes32 index = keccak256(abi.encodePacked(_packetId));\r\n        return uploads[index].ownerAddress;\r\n    }\r\n\r\n    // Sample\r\n    function addSampleRequest(\r\n        string memory _requesterId,\r\n        string memory _packetId,\r\n        string[] memory _keys\r\n    ) public registered(_requesterId) {\r\n        bytes32 index = keccak256(abi.encodePacked(_packetId, msg.sender));\r\n        for (uint8 i = 0; i < _keys.length; i++) {\r\n            sampleRequests[index].push(keccak256(abi.encodePacked(_keys[i])));\r\n        }\r\n        emit SampleRequestResult(\r\n            msg.sender,\r\n            index,\r\n            sampleRequests[index],\r\n            getRandomKeyIndexTest(sampleRequests[index].length)\r\n        );\r\n    }\r\n\r\n    //Probably Unecessary\r\n    function getSampleRequestKeys(bytes32 sampleRequestId)\r\n        public\r\n        view\r\n        returns (bytes32[] memory)\r\n    {\r\n        return sampleRequests[sampleRequestId];\r\n    }\r\n\r\n    function getRandomKeyIndexTest(uint256 mod) internal returns (uint256) {\r\n        uint256 rand =\r\n            uint256(\r\n                keccak256(\r\n                    abi.encodePacked(\r\n                        nonce,\r\n                        block.timestamp,\r\n                        block.difficulty,\r\n                        msg.sender\r\n                    )\r\n                )\r\n            ) % mod;\r\n        nonce++;\r\n        return rand;\r\n    }\r\n\r\n    //Purchase\r\n    function addPurchase(\r\n        string memory _ownerId,\r\n        string memory _packetId,\r\n        address _requesterAddress,\r\n        string[] memory _keys,\r\n        uint256 price,\r\n        bool _approve\r\n    ) public registered(_ownerId) {\r\n        bytes32 index = keccak256(abi.encodePacked(_requesterAddress));\r\n\r\n        if (_approve && hashKeysAndCompare(index, _keys)) {\r\n            purchases[index].packetId = keccak256(abi.encodePacked(_packetId));\r\n            purchases[index].requesterAddress = _requesterAddress;\r\n\r\n            for (uint8 i = 0; i < _keys.length; i++) {\r\n                purchases[index].keys.push(_keys[i]);\r\n            }\r\n            sendMoney(_requesterAddress, payable(msg.sender), price);\r\n        } else {\r\n            returnMoney(payable(_requesterAddress), price);\r\n        }\r\n    }\r\n\r\n    function hashKeysAndCompare(bytes32 _index, string[] memory _keysFromSeller)\r\n        internal\r\n        view\r\n        returns (bool)\r\n    {\r\n        bytes32[] memory keysFromSample = getSampleRequestKeys(_index);\r\n        bool confirm = true;\r\n\r\n        for (uint8 i = 0; i < keysFromSample.length; i++) {\r\n            if (\r\n                keysFromSample[i] !=\r\n                keccak256(abi.encodePacked(_keysFromSeller[i]))\r\n            ) {\r\n                confirm = false;\r\n            }\r\n        }\r\n        return confirm;\r\n    }\r\n\r\n    receive() external payable {\r\n        bytes32 index = keccak256(abi.encodePacked(msg.sender));\r\n        deposits[index] += msg.value;\r\n        emit DepositEvent(msg.sender);\r\n    }\r\n\r\n    function depositMoney(string memory _packetId, uint256 _value)\r\n        public\r\n        payable\r\n    {\r\n        bytes32 index = keccak256(abi.encodePacked(_packetId, msg.sender));\r\n        deposits[index] += _value;\r\n        emit DepositEvent(msg.sender);\r\n    }\r\n\r\n    function sendMoney(\r\n        address from,\r\n        address payable _to,\r\n        uint256 price\r\n    ) internal {\r\n        bytes32 index = keccak256(abi.encodePacked(from));\r\n        require(price <= deposits[index], \"Not enough money sent\");\r\n        uint256 moneyToSent = price;\r\n        deposits[index] -= price;\r\n        _to.transfer(moneyToSent);\r\n\r\n        emit SendMoneyEvent(_to);\r\n    }\r\n\r\n    function returnMoney(address payable _to, uint256 price) internal {\r\n        bytes32 index = keccak256(abi.encodePacked(_to));\r\n        require(price <= deposits[index], \"Not enough money in deposit\");\r\n        uint256 moneyToSent = price;\r\n        deposits[index] -= price;\r\n        _to.transfer(moneyToSent);\r\n\r\n        emit ReturnMoneyEvent(_to);\r\n    }\r\n\r\n    function getPurchaseKeys(\r\n        string memory _requesterId,\r\n        string memory _packetId\r\n    ) public view registered(_requesterId) returns (string[] memory) {\r\n        bytes32 index = keccak256(abi.encodePacked(_packetId, msg.sender));\r\n        return purchases[index].keys;\r\n    }\r\n\r\n    //Review\r\n    function addReview(\r\n        string memory _rated,\r\n        string memory _reviewer,\r\n        uint8 _rating,\r\n        string memory _comments\r\n    ) public registered(_rated) registered(_reviewer) {\r\n        Review memory review =\r\n            Review(_reviewer, _rating, keccak256(abi.encodePacked(_comments)));\r\n        reviews[keccak256(abi.encodePacked(_rated))].push(review);\r\n\r\n        emit ReviewResult(review);\r\n    }\r\n\r\n    //Probably Unecessary\r\n    function getReviews(string memory _rated)\r\n        public\r\n        view\r\n        returns (Review[] memory)\r\n    {\r\n        return reviews[keccak256(abi.encodePacked(_rated))];\r\n    }\r\n\r\n    function getDeposit(address _address) public {\r\n        emit Test2(deposits[keccak256(abi.encodePacked(_address))]);\r\n    }\r\n}\r\n",
  "sourcePath": "C:/Users/vaspa/Desktop/Files/test/contracts/DataDappContract.sol",
  "compiler": {
    "name": "solc",
    "version": "0.8.4+commit.c7e474f2.Emscripten.clang"
  },
  "schemaVersion": "3.4.0",
  "updatedAt": "2021-05-08T11:38:20.448Z",
  "networkType": "ethereum",
  "devdoc": {
    "kind": "dev",
    "methods": {},
    "version": 1
  },
  "userdoc": {
    "kind": "user",
    "methods": {},
    "version": 1
  }
}