{
  "contractName": "PurchaseContract",
  "abi": [
    {
      "anonymous": false,
      "inputs": [
        {
          "indexed": false,
          "internalType": "address",
          "name": "requester",
          "type": "address"
        }
      ],
      "name": "DepositEvent",
      "type": "event"
    },
    {
      "anonymous": false,
      "inputs": [
        {
          "indexed": false,
          "internalType": "address",
          "name": "requester",
          "type": "address"
        }
      ],
      "name": "ReturnMoneyEvent",
      "type": "event"
    },
    {
      "anonymous": false,
      "inputs": [
        {
          "indexed": false,
          "internalType": "address",
          "name": "requester",
          "type": "address"
        }
      ],
      "name": "SendMoneyEvent",
      "type": "event"
    },
    {
      "inputs": [],
      "name": "_owner",
      "outputs": [
        {
          "internalType": "address",
          "name": "",
          "type": "address"
        }
      ],
      "stateMutability": "view",
      "type": "function",
      "constant": true
    },
    {
      "inputs": [
        {
          "internalType": "bytes32",
          "name": "",
          "type": "bytes32"
        }
      ],
      "name": "deposits",
      "outputs": [
        {
          "internalType": "uint256",
          "name": "",
          "type": "uint256"
        }
      ],
      "stateMutability": "view",
      "type": "function",
      "constant": true
    },
    {
      "inputs": [],
      "name": "isOwner",
      "outputs": [
        {
          "internalType": "bool",
          "name": "",
          "type": "bool"
        }
      ],
      "stateMutability": "view",
      "type": "function",
      "constant": true
    },
    {
      "inputs": [
        {
          "internalType": "bytes32",
          "name": "",
          "type": "bytes32"
        }
      ],
      "name": "purchases",
      "outputs": [
        {
          "internalType": "bytes32",
          "name": "packetId",
          "type": "bytes32"
        },
        {
          "internalType": "address",
          "name": "requesterAddress",
          "type": "address"
        }
      ],
      "stateMutability": "view",
      "type": "function",
      "constant": true
    },
    {
      "inputs": [
        {
          "internalType": "string",
          "name": "_id",
          "type": "string"
        }
      ],
      "name": "registerUser",
      "outputs": [],
      "stateMutability": "nonpayable",
      "type": "function"
    },
    {
      "inputs": [
        {
          "internalType": "bytes32",
          "name": "",
          "type": "bytes32"
        }
      ],
      "name": "registeredUsers",
      "outputs": [
        {
          "internalType": "bool",
          "name": "",
          "type": "bool"
        }
      ],
      "stateMutability": "view",
      "type": "function",
      "constant": true
    },
    {
      "inputs": [
        {
          "internalType": "string",
          "name": "_userId",
          "type": "string"
        },
        {
          "internalType": "string",
          "name": "_packetId",
          "type": "string"
        },
        {
          "internalType": "address",
          "name": "_requesterAddress",
          "type": "address"
        },
        {
          "internalType": "string[]",
          "name": "_keys",
          "type": "string[]"
        }
      ],
      "name": "addPurchase",
      "outputs": [],
      "stateMutability": "nonpayable",
      "type": "function"
    },
    {
      "inputs": [
        {
          "internalType": "string",
          "name": "_packetId",
          "type": "string"
        }
      ],
      "name": "depositMoney",
      "outputs": [],
      "stateMutability": "payable",
      "type": "function",
      "payable": true
    },
    {
      "inputs": [
        {
          "internalType": "string",
          "name": "_packetId",
          "type": "string"
        },
        {
          "internalType": "address",
          "name": "_requesterAddress",
          "type": "address"
        }
      ],
      "name": "getPurchaseKeys",
      "outputs": [
        {
          "internalType": "string[]",
          "name": "",
          "type": "string[]"
        }
      ],
      "stateMutability": "view",
      "type": "function",
      "constant": true
    }
  ],
  "bytecode": "0x608060405234801561001057600080fd5b50336000806101000a81548173ffffffffffffffffffffffffffffffffffffffff021916908373ffffffffffffffffffffffffffffffffffffffff16021790555061269a806100606000396000f3fe6080604052600436106100865760003560e01c8063704f1b9411610059578063704f1b941461014a5780637ab8dbe9146101735780638f32d59b146101b1578063b2bdfa7b146101dc578063d68557ae1461020757610086565b80632b8f7a491461008b5780633d3ceea4146100a75780633d4dff7b146100e4578063590211bc14610121575b600080fd5b6100a560048036038101906100a09190610e7e565b610244565b005b3480156100b357600080fd5b506100ce60048036038101906100c99190610ebf565b6102d6565b6040516100db919061120d565b60405180910390f35b3480156100f057600080fd5b5061010b60048036038101906101069190610e55565b61043b565b60405161011891906112ce565b60405180910390f35b34801561012d57600080fd5b5061014860048036038101906101439190610f13565b610453565b005b34801561015657600080fd5b50610171600480360381019061016c9190610e7e565b61068c565b005b34801561017f57600080fd5b5061019a60048036038101906101959190610e55565b610727565b6040516101a8929190611265565b60405180910390f35b3480156101bd57600080fd5b506101c661076b565b6040516101d3919061122f565b60405180910390f35b3480156101e857600080fd5b506101f16107c2565b6040516101fe91906111d7565b60405180910390f35b34801561021357600080fd5b5061022e60048036038101906102299190610e55565b6107e6565b60405161023b919061122f565b60405180910390f35b60008133604051602001610259929190611187565b604051602081830303815290604052805190602001209050346003600083815260200190815260200160002060008282546102949190611408565b925050819055507f542bc46a4bcbeca72d54cd937a4d9a2de5ea98e96bc562429a07930274b451d7336040516102ca91906111d7565b60405180910390a15050565b60606102e061076b565b61031f576040517f08c379a0000000000000000000000000000000000000000000000000000000008152600401610316906112ae565b60405180910390fd5b60008383604051602001610334929190611187565b60405160208183030381529060405280519060200120905060026000828152602001908152602001600020600201805480602002602001604051908101604052809291908181526020016000905b8282101561042e5783829060005260206000200180546103a190611547565b80601f01602080910402602001604051908101604052809291908181526020018280546103cd90611547565b801561041a5780601f106103ef5761010080835404028352916020019161041a565b820191906000526020600020905b8154815290600101906020018083116103fd57829003601f168201915b505050505081526020019060010190610382565b5050505091505092915050565b60036020528060005260406000206000915090505481565b8360011515600160008360405160200161046d9190611170565b60405160208183030381529060405280519060200120815260200190815260200160002060009054906101000a900460ff161515146104e1576040517f08c379a00000000000000000000000000000000000000000000000000000000081526004016104d89061128e565b60405180910390fd5b600084846040516020016104f6929190611187565b6040516020818303038152906040528051906020012090506105188184610806565b15610679578460405160200161052e9190611170565b604051602081830303815290604052805190602001206002600083815260200190815260200160002060000181905550836002600083815260200190815260200160002060010160006101000a81548173ffffffffffffffffffffffffffffffffffffffff021916908373ffffffffffffffffffffffffffffffffffffffff16021790555060005b83518160ff1610156106685760026000838152602001908152602001600020600201848260ff1681518110610614577f4e487b7100000000000000000000000000000000000000000000000000000000600052603260045260246000fd5b6020026020010151908060018154018082558091505060019003906000526020600020016000909190919091509080519060200190610654929190610b77565b508080610660906115aa565b9150506105b6565b506106748433876109b3565b610684565b6106838486610a96565b5b505050505050565b61069461076b565b6106d3576040517f08c379a00000000000000000000000000000000000000000000000000000000081526004016106ca906112ae565b60405180910390fd5b6001806000836040516020016106e99190611170565b60405160208183030381529060405280519060200120815260200190815260200160002060006101000a81548160ff02191690831515021790555050565b60026020528060005260406000206000915090508060000154908060010160009054906101000a900473ffffffffffffffffffffffffffffffffffffffff16905082565b60008060009054906101000a900473ffffffffffffffffffffffffffffffffffffffff1673ffffffffffffffffffffffffffffffffffffffff163373ffffffffffffffffffffffffffffffffffffffff1614905090565b60008054906101000a900473ffffffffffffffffffffffffffffffffffffffff1681565b60016020528060005260406000206000915054906101000a900460ff1681565b60008060405161081590610bfd565b604051809103906000f080158015610831573d6000803e3d6000fd5b50905060008173ffffffffffffffffffffffffffffffffffffffff1663c137b551866040518263ffffffff1660e01b815260040161086f919061124a565b60006040518083038186803b15801561088757600080fd5b505afa15801561089b573d6000803e3d6000fd5b505050506040513d6000823e3d601f19601f820116820180604052508101906108c49190610e14565b905060006001905060005b82518160ff1610156109a657858160ff1681518110610917577f4e487b7100000000000000000000000000000000000000000000000000000000600052603260045260246000fd5b602002602001015160405160200161092f9190611170565b60405160208183030381529060405280519060200120838260ff1681518110610981577f4e487b7100000000000000000000000000000000000000000000000000000000600052603260045260246000fd5b60200260200101511461099357600091505b808061099e906115aa565b9150506108cf565b5080935050505092915050565b600081846040516020016109c8929190611187565b604051602081830303815290604052805190602001209050600060036000838152602001908152602001600020549050600060036000848152602001908152602001600020819055508373ffffffffffffffffffffffffffffffffffffffff166108fc829081150290604051600060405180830381858888f19350505050158015610a57573d6000803e3d6000fd5b507ff78d9b9160162a84408a458af99dc12d3125949b20e55ea678f03d3b39514d1e84604051610a8791906111f2565b60405180910390a15050505050565b60008183604051602001610aab9291906111af565b604051602081830303815290604052805190602001209050600060036000838152602001908152602001600020549050600060036000848152602001908152602001600020819055508373ffffffffffffffffffffffffffffffffffffffff166108fc829081150290604051600060405180830381858888f19350505050158015610b3a573d6000803e3d6000fd5b507e111e66581bd1e7becef013b6063b87c8c911c45d23207796d07e4903ae074284604051610b6991906111f2565b60405180910390a150505050565b828054610b8390611547565b90600052602060002090601f016020900481019282610ba55760008555610bec565b82601f10610bbe57805160ff1916838001178555610bec565b82800160010185558215610bec579182015b82811115610beb578251825591602001919060010190610bd0565b5b509050610bf99190610c0a565b5090565b610f2f8061173683390190565b5b80821115610c23576000816000905550600101610c0b565b5090565b6000610c3a610c358461130e565b6112e9565b90508083825260208201905082856020860282011115610c5957600080fd5b60005b85811015610c895781610c6f8882610dd5565b845260208401935060208301925050600181019050610c5c565b5050509392505050565b6000610ca6610ca18461133a565b6112e9565b90508083825260208201905082856020860282011115610cc557600080fd5b60005b85811015610d0f57813567ffffffffffffffff811115610ce757600080fd5b808601610cf48982610dea565b85526020850194506020840193505050600181019050610cc8565b5050509392505050565b6000610d2c610d2784611366565b6112e9565b905082815260208101848484011115610d4457600080fd5b610d4f848285611505565b509392505050565b600081359050610d6681611707565b92915050565b600082601f830112610d7d57600080fd5b8151610d8d848260208601610c27565b91505092915050565b600082601f830112610da757600080fd5b8135610db7848260208601610c93565b91505092915050565b600081359050610dcf8161171e565b92915050565b600081519050610de48161171e565b92915050565b600082601f830112610dfb57600080fd5b8135610e0b848260208601610d19565b91505092915050565b600060208284031215610e2657600080fd5b600082015167ffffffffffffffff811115610e4057600080fd5b610e4c84828501610d6c565b91505092915050565b600060208284031215610e6757600080fd5b6000610e7584828501610dc0565b91505092915050565b600060208284031215610e9057600080fd5b600082013567ffffffffffffffff811115610eaa57600080fd5b610eb684828501610dea565b91505092915050565b60008060408385031215610ed257600080fd5b600083013567ffffffffffffffff811115610eec57600080fd5b610ef885828601610dea565b9250506020610f0985828601610d57565b9150509250929050565b60008060008060808587031215610f2957600080fd5b600085013567ffffffffffffffff811115610f4357600080fd5b610f4f87828801610dea565b945050602085013567ffffffffffffffff811115610f6c57600080fd5b610f7887828801610dea565b9350506040610f8987828801610d57565b925050606085013567ffffffffffffffff811115610fa657600080fd5b610fb287828801610d96565b91505092959194509250565b6000610fca83836110b1565b905092915050565b610fdb816114cf565b82525050565b610ff2610fed82611470565b6115e6565b82525050565b6110018161145e565b82525050565b6110186110138261145e565b6115d4565b82525050565b6000611029826113a7565b61103381856113ca565b93508360208202850161104585611397565b8060005b8581101561108157848403895281516110628582610fbe565b945061106d836113bd565b925060208a01995050600181019050611049565b50829750879550505050505092915050565b61109c81611482565b82525050565b6110ab8161148e565b82525050565b60006110bc826113b2565b6110c681856113db565b93506110d6818560208601611514565b6110df81611697565b840191505092915050565b60006110f5826113b2565b6110ff81856113fd565b935061110f818560208601611514565b80840191505092915050565b60006111286016836113ec565b9150611133826116b5565b602082019050919050565b600061114b6020836113ec565b9150611156826116de565b602082019050919050565b61116a816114b8565b82525050565b600061117c82846110ea565b915081905092915050565b600061119382856110ea565b915061119f8284611007565b6014820191508190509392505050565b60006111bb82856110ea565b91506111c78284610fe1565b6014820191508190509392505050565b60006020820190506111ec6000830184610ff8565b92915050565b60006020820190506112076000830184610fd2565b92915050565b60006020820190508181036000830152611227818461101e565b905092915050565b60006020820190506112446000830184611093565b92915050565b600060208201905061125f60008301846110a2565b92915050565b600060408201905061127a60008301856110a2565b6112876020830184610ff8565b9392505050565b600060208201905081810360008301526112a78161111b565b9050919050565b600060208201905081810360008301526112c78161113e565b9050919050565b60006020820190506112e36000830184611161565b92915050565b60006112f3611304565b90506112ff8282611579565b919050565b6000604051905090565b600067ffffffffffffffff82111561132957611328611668565b5b602082029050602081019050919050565b600067ffffffffffffffff82111561135557611354611668565b5b602082029050602081019050919050565b600067ffffffffffffffff82111561138157611380611668565b5b61138a82611697565b9050602081019050919050565b6000819050602082019050919050565b600081519050919050565b600081519050919050565b6000602082019050919050565b600082825260208201905092915050565b600082825260208201905092915050565b600082825260208201905092915050565b600081905092915050565b6000611413826114b8565b915061141e836114b8565b9250827fffffffffffffffffffffffffffffffffffffffffffffffffffffffffffffffff038211156114535761145261160a565b5b828201905092915050565b600061146982611498565b9050919050565b600061147b82611498565b9050919050565b60008115159050919050565b6000819050919050565b600073ffffffffffffffffffffffffffffffffffffffff82169050919050565b6000819050919050565b600060ff82169050919050565b60006114da826114e1565b9050919050565b60006114ec826114f3565b9050919050565b60006114fe82611498565b9050919050565b82818337600083830152505050565b60005b83811015611532578082015181840152602081019050611517565b83811115611541576000848401525b50505050565b6000600282049050600182168061155f57607f821691505b6020821081141561157357611572611639565b5b50919050565b61158282611697565b810181811067ffffffffffffffff821117156115a1576115a0611668565b5b80604052505050565b60006115b5826114c2565b915060ff8214156115c9576115c861160a565b5b600182019050919050565b60006115df826115f8565b9050919050565b60006115f1826115f8565b9050919050565b6000611603826116a8565b9050919050565b7f4e487b7100000000000000000000000000000000000000000000000000000000600052601160045260246000fd5b7f4e487b7100000000000000000000000000000000000000000000000000000000600052602260045260246000fd5b7f4e487b7100000000000000000000000000000000000000000000000000000000600052604160045260246000fd5b6000601f19601f8301169050919050565b60008160601b9050919050565b7f55736572206973206e6f74207265676973746572656400000000000000000000600082015250565b7f4f776e61626c653a2063616c6c6572206973206e6f7420746865206f776e6572600082015250565b6117108161145e565b811461171b57600080fd5b50565b6117278161148e565b811461173257600080fd5b5056fe608060405234801561001057600080fd5b50336000806101000a81548173ffffffffffffffffffffffffffffffffffffffff021916908373ffffffffffffffffffffffffffffffffffffffff160217905550610ecf806100606000396000f3fe608060405234801561001057600080fd5b506004361061007d5760003560e01c80639b5c93cd1161005b5780639b5c93cd146100ec578063b2bdfa7b14610108578063c137b55114610126578063d68557ae146101565761007d565b806367c8753b14610082578063704f1b94146100b25780638f32d59b146100ce575b600080fd5b61009c60048036038101906100979190610705565b610186565b6040516100a99190610a8d565b60405180910390f35b6100cc60048036038101906100c79190610741565b6101b7565b005b6100d6610252565b6040516100e39190610a72565b60405180910390f35b61010660048036038101906101019190610782565b6102a9565b005b610110610488565b60405161011d9190610a0c565b60405180910390f35b610140600480360381019061013b91906106dc565b6104ac565b60405161014d9190610a50565b60405180910390f35b610170600480360381019061016b91906106dc565b610517565b60405161017d9190610a72565b60405180910390f35b600260205281600052604060002081815481106101a257600080fd5b90600052602060002001600091509150505481565b6101bf610252565b6101fe576040517f08c379a00000000000000000000000000000000000000000000000000000000081526004016101f590610ac8565b60405180910390fd5b600180600083604051602001610214919061097f565b60405160208183030381529060405280519060200120815260200190815260200160002060006101000a81548160ff02191690831515021790555050565b60008060009054906101000a900473ffffffffffffffffffffffffffffffffffffffff1673ffffffffffffffffffffffffffffffffffffffff163373ffffffffffffffffffffffffffffffffffffffff1614905090565b826001151560016000836040516020016102c3919061097f565b60405160208183030381529060405280519060200120815260200190815260200160002060009054906101000a900460ff16151514610337576040517f08c379a000000000000000000000000000000000000000000000000000000000815260040161032e90610aa8565b60405180910390fd5b6000833360405160200161034c929190610996565b60405160208183030381529060405280519060200120905060005b83518160ff1610156104295760026000838152602001908152602001600020848260ff16815181106103c2577f4e487b7100000000000000000000000000000000000000000000000000000000600052603260045260246000fd5b60200260200101516040516020016103da919061097f565b604051602081830303815290604052805190602001209080600181540180825580915050600190039060005260206000200160009091909190915055808061042190610ce5565b915050610367565b507f089aa10c109296bf82ebc419d1f7adbe9f9d3c367c6f43ceffb6aa1fadc918703361046b6002600085815260200190815260200160002080549050610537565b604051610479929190610a27565b60405180910390a15050505050565b60008054906101000a900473ffffffffffffffffffffffffffffffffffffffff1681565b60606002600083815260200190815260200160002080548060200260200160405190810160405280929190818152602001828054801561050b57602002820191906000526020600020905b8154815260200190600101908083116104f7575b50505050509050919050565b60016020528060005260406000206000915054906101000a900460ff1681565b6000808260035442443360405160200161055494939291906109be565b6040516020818303038152906040528051906020012060001c6105779190610d3d565b90506003600081548092919061058c90610c9c565b919050555080915050919050565b60006105ad6105a884610b0d565b610ae8565b905080838252602082019050828560208602820111156105cc57600080fd5b60005b8581101561061657813567ffffffffffffffff8111156105ee57600080fd5b8086016105fb898261069d565b855260208501945060208401935050506001810190506105cf565b5050509392505050565b600061063361062e84610b39565b610ae8565b90508281526020810184848401111561064b57600080fd5b610656848285610c29565b509392505050565b600082601f83011261066f57600080fd5b813561067f84826020860161059a565b91505092915050565b60008135905061069781610e6b565b92915050565b600082601f8301126106ae57600080fd5b81356106be848260208601610620565b91505092915050565b6000813590506106d681610e82565b92915050565b6000602082840312156106ee57600080fd5b60006106fc84828501610688565b91505092915050565b6000806040838503121561071857600080fd5b600061072685828601610688565b9250506020610737858286016106c7565b9150509250929050565b60006020828403121561075357600080fd5b600082013567ffffffffffffffff81111561076d57600080fd5b6107798482850161069d565b91505092915050565b60008060006060848603121561079757600080fd5b600084013567ffffffffffffffff8111156107b157600080fd5b6107bd8682870161069d565b935050602084013567ffffffffffffffff8111156107da57600080fd5b6107e68682870161069d565b925050604084013567ffffffffffffffff81111561080357600080fd5b61080f8682870161065e565b9150509250925092565b600061082583836108c4565b60208301905092915050565b61083a81610bca565b82525050565b61085161084c82610bca565b610d0f565b82525050565b600061086282610b7a565b61086c8185610b9d565b935061087783610b6a565b8060005b838110156108a857815161088f8882610819565b975061089a83610b90565b92505060018101905061087b565b5085935050505092915050565b6108be81610bdc565b82525050565b6108cd81610be8565b82525050565b6108dc81610be8565b82525050565b60006108ed82610b85565b6108f78185610bbf565b9350610907818560208601610c38565b80840191505092915050565b6000610920601683610bae565b915061092b82610e19565b602082019050919050565b6000610943602083610bae565b915061094e82610e42565b602082019050919050565b61096281610c12565b82525050565b61097961097482610c12565b610d33565b82525050565b600061098b82846108e2565b915081905092915050565b60006109a282856108e2565b91506109ae8284610840565b6014820191508190509392505050565b60006109ca8287610968565b6020820191506109da8286610968565b6020820191506109ea8285610968565b6020820191506109fa8284610840565b60148201915081905095945050505050565b6000602082019050610a216000830184610831565b92915050565b6000604082019050610a3c6000830185610831565b610a496020830184610959565b9392505050565b60006020820190508181036000830152610a6a8184610857565b905092915050565b6000602082019050610a8760008301846108b5565b92915050565b6000602082019050610aa260008301846108d3565b92915050565b60006020820190508181036000830152610ac181610913565b9050919050565b60006020820190508181036000830152610ae181610936565b9050919050565b6000610af2610b03565b9050610afe8282610c6b565b919050565b6000604051905090565b600067ffffffffffffffff821115610b2857610b27610dcc565b5b602082029050602081019050919050565b600067ffffffffffffffff821115610b5457610b53610dcc565b5b610b5d82610dfb565b9050602081019050919050565b6000819050602082019050919050565b600081519050919050565b600081519050919050565b6000602082019050919050565b600082825260208201905092915050565b600082825260208201905092915050565b600081905092915050565b6000610bd582610bf2565b9050919050565b60008115159050919050565b6000819050919050565b600073ffffffffffffffffffffffffffffffffffffffff82169050919050565b6000819050919050565b600060ff82169050919050565b82818337600083830152505050565b60005b83811015610c56578082015181840152602081019050610c3b565b83811115610c65576000848401525b50505050565b610c7482610dfb565b810181811067ffffffffffffffff82111715610c9357610c92610dcc565b5b80604052505050565b6000610ca782610c12565b91507fffffffffffffffffffffffffffffffffffffffffffffffffffffffffffffffff821415610cda57610cd9610d6e565b5b600182019050919050565b6000610cf082610c1c565b915060ff821415610d0457610d03610d6e565b5b600182019050919050565b6000610d1a82610d21565b9050919050565b6000610d2c82610e0c565b9050919050565b6000819050919050565b6000610d4882610c12565b9150610d5383610c12565b925082610d6357610d62610d9d565b5b828206905092915050565b7f4e487b7100000000000000000000000000000000000000000000000000000000600052601160045260246000fd5b7f4e487b7100000000000000000000000000000000000000000000000000000000600052601260045260246000fd5b7f4e487b7100000000000000000000000000000000000000000000000000000000600052604160045260246000fd5b6000601f19601f8301169050919050565b60008160601b9050919050565b7f55736572206973206e6f74207265676973746572656400000000000000000000600082015250565b7f4f776e61626c653a2063616c6c6572206973206e6f7420746865206f776e6572600082015250565b610e7481610be8565b8114610e7f57600080fd5b50565b610e8b81610c12565b8114610e9657600080fd5b5056fea26469706673582212200d3d5cae4d2c493b7710beab61b993bfef3d777db4a1091803f823311124250f64736f6c63430008040033a264697066735822122070f698699936fafd91fabf1b9057fbc6edadebb0a17102463f6c8fbe3cc9568d64736f6c63430008040033",
  "immutableReferences": {},
  "source": "pragma solidity 0.8.4;\r\n\r\nimport \"./SampleContract.sol\";\r\n\r\ncontract PurchaseContract is Registry {\r\n    struct Purchase {\r\n        bytes32 packetId;\r\n        address requesterAddress;\r\n        string[] keys;\r\n    }\r\n\r\n    mapping(bytes32 => Purchase) public purchases;\r\n    mapping(bytes32 => uint256) public deposits;\r\n\r\n    event DepositEvent(address requester);\r\n    event SendMoneyEvent(address requester);\r\n    event ReturnMoneyEvent(address requester);\r\n\r\n    function addPurchase(\r\n        string memory _userId,\r\n        string memory _packetId,\r\n        address _requesterAddress,\r\n        string[] memory _keys\r\n    ) public registered(_userId) {\r\n        bytes32 index =\r\n            keccak256(abi.encodePacked(_packetId, _requesterAddress));\r\n\r\n        if (hashKeysAndCompare(index, _keys)) {\r\n            purchases[index].packetId = keccak256(abi.encodePacked(_packetId));\r\n            purchases[index].requesterAddress = _requesterAddress;\r\n\r\n            for (uint8 i = 0; i < _keys.length; i++) {\r\n                purchases[index].keys.push(_keys[i]);\r\n            }\r\n            sendMoney(_requesterAddress, payable(msg.sender), _packetId);\r\n        } else {\r\n            returnMoney(payable(_requesterAddress), _packetId);\r\n        }\r\n    }\r\n\r\n    function hashKeysAndCompare(bytes32 _index, string[] memory _keysFromSeller)\r\n        internal\r\n        returns (bool)\r\n    {\r\n        SampleContract sampleContract = new SampleContract();\r\n\r\n        bytes32[] memory keysFromSample =\r\n            sampleContract.getSampleRequestKeys(_index);\r\n        bool confirm = true;\r\n\r\n        for (uint8 i = 0; i < keysFromSample.length; i++) {\r\n            if (\r\n                keysFromSample[i] !=\r\n                keccak256(abi.encodePacked(_keysFromSeller[i]))\r\n            ) {\r\n                confirm = false;\r\n            }\r\n        }\r\n        return confirm;\r\n    }\r\n\r\n    function depositMoney(string memory _packetId) public payable {\r\n        bytes32 index = keccak256(abi.encodePacked(_packetId, msg.sender));\r\n        deposits[index] += msg.value;\r\n        emit DepositEvent(msg.sender);\r\n    }\r\n\r\n    function sendMoney(\r\n        address from,\r\n        address payable _to,\r\n        string memory _packetId\r\n    ) internal {\r\n        bytes32 index = keccak256(abi.encodePacked(_packetId, from));\r\n        uint256 moneyToSent = deposits[index];\r\n        deposits[index] = 0;\r\n        _to.transfer(moneyToSent);\r\n\r\n        emit SendMoneyEvent(_to);\r\n    }\r\n\r\n    function returnMoney(address payable _to, string memory _packetId)\r\n        internal\r\n    {\r\n        bytes32 index = keccak256(abi.encodePacked(_packetId, _to));\r\n        uint256 moneyToSent = deposits[index];\r\n        deposits[index] = 0;\r\n        _to.transfer(moneyToSent);\r\n\r\n        emit ReturnMoneyEvent(_to);\r\n    }\r\n\r\n    function getPurchaseKeys(string memory _packetId, address _requesterAddress)\r\n        public\r\n        view\r\n        onlyOwner\r\n        returns (string[] memory)\r\n    {\r\n        bytes32 index =\r\n            keccak256(abi.encodePacked(_packetId, _requesterAddress));\r\n        return purchases[index].keys;\r\n    }\r\n}\r\n",
  "sourcePath": "C:/Users/vaspa/Desktop/Files/test/contracts/PurchaseContract.sol",
  "compiler": {
    "name": "solc",
    "version": "0.8.4+commit.c7e474f2.Emscripten.clang"
  },
  "schemaVersion": "3.4.0",
  "updatedAt": "2021-05-07T19:29:15.652Z",
  "networkType": "ethereum",
  "devdoc": {
    "kind": "dev",
    "methods": {},
    "version": 1
  },
  "userdoc": {
    "kind": "user",
    "methods": {},
    "version": 1
  }
}