{
  "contractName": "Registry",
  "abi": [
    {
      "anonymous": false,
      "inputs": [
        {
          "indexed": false,
          "internalType": "bool",
          "name": "_isRegistered",
          "type": "bool"
        }
      ],
      "name": "Check",
      "type": "event"
    },
    {
      "anonymous": false,
      "inputs": [
        {
          "indexed": false,
          "internalType": "string",
          "name": "_id",
          "type": "string"
        }
      ],
      "name": "Register",
      "type": "event"
    },
    {
      "inputs": [
        {
          "internalType": "bytes32",
          "name": "",
          "type": "bytes32"
        }
      ],
      "name": "registeredUsers",
      "outputs": [
        {
          "internalType": "bool",
          "name": "",
          "type": "bool"
        }
      ],
      "stateMutability": "view",
      "type": "function",
      "constant": true
    },
    {
      "inputs": [
        {
          "internalType": "string",
          "name": "_id",
          "type": "string"
        }
      ],
      "name": "registerUser",
      "outputs": [],
      "stateMutability": "nonpayable",
      "type": "function"
    },
    {
      "inputs": [
        {
          "internalType": "string",
          "name": "_id",
          "type": "string"
        }
      ],
      "name": "getRegisterUsers",
      "outputs": [],
      "stateMutability": "nonpayable",
      "type": "function"
    }
  ],
  "bytecode": "0x608060405234801561001057600080fd5b5061051f806100206000396000f3fe608060405234801561001057600080fd5b50600436106100415760003560e01c80636bf22a4b14610046578063704f1b9414610062578063d68557ae1461007e575b600080fd5b610060600480360381019061005b919061027e565b6100ae565b005b61007c6004803603810190610077919061027e565b61012d565b005b61009860048036038101906100939190610255565b6101b8565b6040516100a5919061034f565b60405180910390f35b7f0f806f3a69aebe25b6129d19609333999fb4d2aed709217d19e0465d3bf3e72e600080836040516020016100e39190610338565b60405160208183030381529060405280519060200120815260200190815260200160002060009054906101000a900460ff16604051610122919061034f565b60405180910390a150565b6001600080836040516020016101439190610338565b60405160208183030381529060405280519060200120815260200190815260200160002060006101000a81548160ff0219169083151502179055507f40b2d3af7e7a908ab771e3b293d2df299bb187d4ac2dcb3dbc2455fdcf5c15dd816040516101ad919061036a565b60405180910390a150565b60006020528060005260406000206000915054906101000a900460ff1681565b60006101eb6101e6846103b1565b61038c565b90508281526020810184848401111561020357600080fd5b61020e84828561041f565b509392505050565b600081359050610225816104d2565b92915050565b600082601f83011261023c57600080fd5b813561024c8482602086016101d8565b91505092915050565b60006020828403121561026757600080fd5b600061027584828501610216565b91505092915050565b60006020828403121561029057600080fd5b600082013567ffffffffffffffff8111156102aa57600080fd5b6102b68482850161022b565b91505092915050565b6102c881610409565b82525050565b60006102d9826103e2565b6102e381856103ed565b93506102f381856020860161042e565b6102fc816104c1565b840191505092915050565b6000610312826103e2565b61031c81856103fe565b935061032c81856020860161042e565b80840191505092915050565b60006103448284610307565b915081905092915050565b600060208201905061036460008301846102bf565b92915050565b6000602082019050818103600083015261038481846102ce565b905092915050565b60006103966103a7565b90506103a28282610461565b919050565b6000604051905090565b600067ffffffffffffffff8211156103cc576103cb610492565b5b6103d5826104c1565b9050602081019050919050565b600081519050919050565b600082825260208201905092915050565b600081905092915050565b60008115159050919050565b6000819050919050565b82818337600083830152505050565b60005b8381101561044c578082015181840152602081019050610431565b8381111561045b576000848401525b50505050565b61046a826104c1565b810181811067ffffffffffffffff8211171561048957610488610492565b5b80604052505050565b7f4e487b7100000000000000000000000000000000000000000000000000000000600052604160045260246000fd5b6000601f19601f8301169050919050565b6104db81610415565b81146104e657600080fd5b5056fea2646970667358221220652d38b20dcb5295a7a3b7bcadb7e3da827a4b32408d46e5be0728ebd2aae52464736f6c63430008040033",
  "immutableReferences": {},
  "source": "pragma solidity 0.8.4;\r\n\r\ncontract Registry {\r\n    mapping(bytes32 => bool) public registeredUsers;\r\n\r\n    event Register(string _id);\r\n    event Check(bool _isRegistered);\r\n\r\n    function registerUser(string memory _id) public {\r\n        registeredUsers[keccak256(abi.encodePacked(_id))] = true;\r\n        emit Register(_id);\r\n    }\r\n\r\n    // Throws if user passed as a parameter is not registered\r\n    modifier registered(string memory _id) {\r\n        require(\r\n            registeredUsers[keccak256(abi.encodePacked(_id))] == true,\r\n            \"User is not registered\"\r\n        );\r\n        _;\r\n    }\r\n\r\n    function getRegisterUsers(string memory _id) public {\r\n        emit Check(registeredUsers[keccak256(abi.encodePacked(_id))]);\r\n    }\r\n}\r\n",
  "sourcePath": "C:/Users/vaspa/Desktop/Files/test/contracts/Registry.sol",
  "compiler": {
    "name": "solc",
    "version": "0.8.4+commit.c7e474f2.Emscripten.clang"
  },
  "schemaVersion": "3.4.0",
  "updatedAt": "2021-05-08T11:38:20.432Z",
  "networkType": "ethereum",
  "devdoc": {
    "kind": "dev",
    "methods": {},
    "version": 1
  },
  "userdoc": {
    "kind": "user",
    "methods": {},
    "version": 1
  }
}