{
  "contractName": "ReviewContract",
  "abi": [
    {
      "anonymous": false,
      "inputs": [
        {
          "components": [
            {
              "internalType": "string",
              "name": "reviewer",
              "type": "string"
            },
            {
              "internalType": "uint8",
              "name": "rating",
              "type": "uint8"
            },
            {
              "internalType": "bytes32",
              "name": "comments",
              "type": "bytes32"
            }
          ],
          "indexed": false,
          "internalType": "struct ReviewContract.Review",
          "name": "_review",
          "type": "tuple"
        }
      ],
      "name": "ReviewResult",
      "type": "event"
    },
    {
      "inputs": [],
      "name": "_owner",
      "outputs": [
        {
          "internalType": "address",
          "name": "",
          "type": "address"
        }
      ],
      "stateMutability": "view",
      "type": "function",
      "constant": true
    },
    {
      "inputs": [],
      "name": "isOwner",
      "outputs": [
        {
          "internalType": "bool",
          "name": "",
          "type": "bool"
        }
      ],
      "stateMutability": "view",
      "type": "function",
      "constant": true
    },
    {
      "inputs": [
        {
          "internalType": "string",
          "name": "_id",
          "type": "string"
        }
      ],
      "name": "registerUser",
      "outputs": [],
      "stateMutability": "nonpayable",
      "type": "function"
    },
    {
      "inputs": [
        {
          "internalType": "bytes32",
          "name": "",
          "type": "bytes32"
        }
      ],
      "name": "registeredUsers",
      "outputs": [
        {
          "internalType": "bool",
          "name": "",
          "type": "bool"
        }
      ],
      "stateMutability": "view",
      "type": "function",
      "constant": true
    },
    {
      "inputs": [
        {
          "internalType": "bytes32",
          "name": "",
          "type": "bytes32"
        },
        {
          "internalType": "uint256",
          "name": "",
          "type": "uint256"
        }
      ],
      "name": "reviews",
      "outputs": [
        {
          "internalType": "string",
          "name": "reviewer",
          "type": "string"
        },
        {
          "internalType": "uint8",
          "name": "rating",
          "type": "uint8"
        },
        {
          "internalType": "bytes32",
          "name": "comments",
          "type": "bytes32"
        }
      ],
      "stateMutability": "view",
      "type": "function",
      "constant": true
    },
    {
      "inputs": [
        {
          "internalType": "string",
          "name": "_rated",
          "type": "string"
        },
        {
          "internalType": "string",
          "name": "_reviewer",
          "type": "string"
        },
        {
          "internalType": "uint8",
          "name": "_rating",
          "type": "uint8"
        },
        {
          "internalType": "string",
          "name": "_comments",
          "type": "string"
        }
      ],
      "name": "addReview",
      "outputs": [],
      "stateMutability": "nonpayable",
      "type": "function"
    },
    {
      "inputs": [
        {
          "internalType": "string",
          "name": "_rated",
          "type": "string"
        }
      ],
      "name": "getReviews",
      "outputs": [
        {
          "components": [
            {
              "internalType": "string",
              "name": "reviewer",
              "type": "string"
            },
            {
              "internalType": "uint8",
              "name": "rating",
              "type": "uint8"
            },
            {
              "internalType": "bytes32",
              "name": "comments",
              "type": "bytes32"
            }
          ],
          "internalType": "struct ReviewContract.Review[]",
          "name": "",
          "type": "tuple[]"
        }
      ],
      "stateMutability": "view",
      "type": "function",
      "constant": true
    }
  ],
  "bytecode": "0x608060405234801561001057600080fd5b50336000806101000a81548173ffffffffffffffffffffffffffffffffffffffff021916908373ffffffffffffffffffffffffffffffffffffffff160217905550611059806100606000396000f3fe608060405234801561001057600080fd5b506004361061007d5760003560e01c8063704f1b941161005b578063704f1b94146101005780638f32d59b1461011c578063b2bdfa7b1461013a578063d68557ae146101585761007d565b80631e5d3076146100825780632978465d1461009e578063366c6ea4146100ce575b600080fd5b61009c6004803603810190610097919061092c565b610188565b005b6100b860048036038101906100b391906108eb565b6103d9565b6040516100c59190610c75565b60405180910390f35b6100e860048036038101906100e391906108af565b61052a565b6040516100f793929190610cb2565b60405180910390f35b61011a600480360381019061011591906108eb565b610606565b005b6101246106a1565b6040516101319190610c97565b60405180910390f35b6101426106f8565b60405161014f9190610c5a565b60405180910390f35b610172600480360381019061016d9190610886565b61071c565b60405161017f9190610c97565b60405180910390f35b836001151560016000836040516020016101a29190610c43565b60405160208183030381529060405280519060200120815260200190815260200160002060009054906101000a900460ff16151514610216576040517f08c379a000000000000000000000000000000000000000000000000000000000815260040161020d90610cf0565b60405180910390fd5b836001151560016000836040516020016102309190610c43565b60405160208183030381529060405280519060200120815260200190815260200160002060009054906101000a900460ff161515146102a4576040517f08c379a000000000000000000000000000000000000000000000000000000000815260040161029b90610cf0565b60405180910390fd5b600060405180606001604052808781526020018660ff168152602001856040516020016102d19190610c43565b60405160208183030381529060405280519060200120815250905060026000886040516020016103019190610c43565b604051602081830303815290604052805190602001208152602001908152602001600020819080600181540180825580915050600190039060005260206000209060030201600090919091909150600082015181600001908051906020019061036b92919061073c565b5060208201518160010160006101000a81548160ff021916908360ff1602179055506040820151816002015550507f52b7a5046109bc575df27b04dadaac96f00086418a53ae85d90679f2c275a28f816040516103c89190610d30565b60405180910390a150505050505050565b606060026000836040516020016103f09190610c43565b604051602081830303815290604052805190602001208152602001908152602001600020805480602002602001604051908101604052809291908181526020016000905b8282101561051f578382906000526020600020906003020160405180606001604052908160008201805461046790610eba565b80601f016020809104026020016040519081016040528092919081815260200182805461049390610eba565b80156104e05780601f106104b5576101008083540402835291602001916104e0565b820191906000526020600020905b8154815290600101906020018083116104c357829003601f168201915b505050505081526020016001820160009054906101000a900460ff1660ff1660ff16815260200160028201548152505081526020019060010190610434565b505050509050919050565b6002602052816000526040600020818154811061054657600080fd5b90600052602060002090600302016000915091505080600001805461056a90610eba565b80601f016020809104026020016040519081016040528092919081815260200182805461059690610eba565b80156105e35780601f106105b8576101008083540402835291602001916105e3565b820191906000526020600020905b8154815290600101906020018083116105c657829003601f168201915b5050505050908060010160009054906101000a900460ff16908060020154905083565b61060e6106a1565b61064d576040517f08c379a000000000000000000000000000000000000000000000000000000000815260040161064490610d10565b60405180910390fd5b6001806000836040516020016106639190610c43565b60405160208183030381529060405280519060200120815260200190815260200160002060006101000a81548160ff02191690831515021790555050565b60008060009054906101000a900473ffffffffffffffffffffffffffffffffffffffff1673ffffffffffffffffffffffffffffffffffffffff163373ffffffffffffffffffffffffffffffffffffffff1614905090565b60008054906101000a900473ffffffffffffffffffffffffffffffffffffffff1681565b60016020528060005260406000206000915054906101000a900460ff1681565b82805461074890610eba565b90600052602060002090601f01602090048101928261076a57600085556107b1565b82601f1061078357805160ff19168380011785556107b1565b828001600101855582156107b1579182015b828111156107b0578251825591602001919060010190610795565b5b5090506107be91906107c2565b5090565b5b808211156107db5760008160009055506001016107c3565b5090565b60006107f26107ed84610d77565b610d52565b90508281526020810184848401111561080a57600080fd5b610815848285610e78565b509392505050565b60008135905061082c81610fde565b92915050565b600082601f83011261084357600080fd5b81356108538482602086016107df565b91505092915050565b60008135905061086b81610ff5565b92915050565b6000813590506108808161100c565b92915050565b60006020828403121561089857600080fd5b60006108a68482850161081d565b91505092915050565b600080604083850312156108c257600080fd5b60006108d08582860161081d565b92505060206108e18582860161085c565b9150509250929050565b6000602082840312156108fd57600080fd5b600082013567ffffffffffffffff81111561091757600080fd5b61092384828501610832565b91505092915050565b6000806000806080858703121561094257600080fd5b600085013567ffffffffffffffff81111561095c57600080fd5b61096887828801610832565b945050602085013567ffffffffffffffff81111561098557600080fd5b61099187828801610832565b93505060406109a287828801610871565b925050606085013567ffffffffffffffff8111156109bf57600080fd5b6109cb87828801610832565b91505092959194509250565b60006109e38383610b85565b905092915050565b6109f481610e19565b82525050565b6000610a0582610db8565b610a0f8185610ddb565b935083602082028501610a2185610da8565b8060005b85811015610a5d5784840389528151610a3e85826109d7565b9450610a4983610dce565b925060208a01995050600181019050610a25565b50829750879550505050505092915050565b610a7881610e2b565b82525050565b610a8781610e37565b82525050565b610a9681610e37565b82525050565b6000610aa782610dc3565b610ab18185610dec565b9350610ac1818560208601610e87565b610aca81610f7b565b840191505092915050565b6000610ae082610dc3565b610aea8185610dfd565b9350610afa818560208601610e87565b610b0381610f7b565b840191505092915050565b6000610b1982610dc3565b610b238185610e0e565b9350610b33818560208601610e87565b80840191505092915050565b6000610b4c601683610dfd565b9150610b5782610f8c565b602082019050919050565b6000610b6f602083610dfd565b9150610b7a82610fb5565b602082019050919050565b60006060830160008301518482036000860152610ba28282610a9c565b9150506020830151610bb76020860182610c25565b506040830151610bca6040860182610a7e565b508091505092915050565b60006060830160008301518482036000860152610bf28282610a9c565b9150506020830151610c076020860182610c25565b506040830151610c1a6040860182610a7e565b508091505092915050565b610c2e81610e6b565b82525050565b610c3d81610e6b565b82525050565b6000610c4f8284610b0e565b915081905092915050565b6000602082019050610c6f60008301846109eb565b92915050565b60006020820190508181036000830152610c8f81846109fa565b905092915050565b6000602082019050610cac6000830184610a6f565b92915050565b60006060820190508181036000830152610ccc8186610ad5565b9050610cdb6020830185610c34565b610ce86040830184610a8d565b949350505050565b60006020820190508181036000830152610d0981610b3f565b9050919050565b60006020820190508181036000830152610d2981610b62565b9050919050565b60006020820190508181036000830152610d4a8184610bd5565b905092915050565b6000610d5c610d6d565b9050610d688282610eec565b919050565b6000604051905090565b600067ffffffffffffffff821115610d9257610d91610f4c565b5b610d9b82610f7b565b9050602081019050919050565b6000819050602082019050919050565b600081519050919050565b600081519050919050565b6000602082019050919050565b600082825260208201905092915050565b600082825260208201905092915050565b600082825260208201905092915050565b600081905092915050565b6000610e2482610e41565b9050919050565b60008115159050919050565b6000819050919050565b600073ffffffffffffffffffffffffffffffffffffffff82169050919050565b6000819050919050565b600060ff82169050919050565b82818337600083830152505050565b60005b83811015610ea5578082015181840152602081019050610e8a565b83811115610eb4576000848401525b50505050565b60006002820490506001821680610ed257607f821691505b60208210811415610ee657610ee5610f1d565b5b50919050565b610ef582610f7b565b810181811067ffffffffffffffff82111715610f1457610f13610f4c565b5b80604052505050565b7f4e487b7100000000000000000000000000000000000000000000000000000000600052602260045260246000fd5b7f4e487b7100000000000000000000000000000000000000000000000000000000600052604160045260246000fd5b6000601f19601f8301169050919050565b7f55736572206973206e6f74207265676973746572656400000000000000000000600082015250565b7f4f776e61626c653a2063616c6c6572206973206e6f7420746865206f776e6572600082015250565b610fe781610e37565b8114610ff257600080fd5b50565b610ffe81610e61565b811461100957600080fd5b50565b61101581610e6b565b811461102057600080fd5b5056fea26469706673582212203a14ca4f721d4a2f15fddf04ecf5e9499b7f7e715ea867bc0b123c408759b5b864736f6c63430008040033",
  "immutableReferences": {},
  "source": "pragma solidity 0.8.4;\r\n\r\nimport \"./Registry.sol\";\r\n\r\ncontract ReviewContract is Registry {\r\n    struct Review {\r\n        string reviewer;\r\n        uint8 rating;\r\n        bytes32 comments;\r\n    }\r\n\r\n    mapping(bytes32 => Review[]) public reviews;\r\n\r\n    event ReviewResult(Review _review);\r\n\r\n    function addReview(\r\n        string memory _rated,\r\n        string memory _reviewer,\r\n        uint8 _rating,\r\n        string memory _comments\r\n    ) public registered(_rated) registered(_reviewer) {\r\n        Review memory review =\r\n            Review(_reviewer, _rating, keccak256(abi.encodePacked(_comments)));\r\n        reviews[keccak256(abi.encodePacked(_rated))].push(review);\r\n\r\n        emit ReviewResult(review);\r\n    }\r\n\r\n    function getReviews(string memory _rated)\r\n        public\r\n        view\r\n        returns (Review[] memory)\r\n    {\r\n        return reviews[keccak256(abi.encodePacked(_rated))];\r\n    }\r\n}\r\n",
  "sourcePath": "C:/Users/vaspa/Desktop/Files/test/contracts/ReviewContract.sol",
  "compiler": {
    "name": "solc",
    "version": "0.8.4+commit.c7e474f2.Emscripten.clang"
  },
  "schemaVersion": "3.4.0",
  "updatedAt": "2021-05-07T19:29:15.681Z",
  "networkType": "ethereum",
  "devdoc": {
    "kind": "dev",
    "methods": {},
    "version": 1
  },
  "userdoc": {
    "kind": "user",
    "methods": {},
    "version": 1
  }
}