{
  "contractName": "SampleContract",
  "abi": [
    {
      "anonymous": false,
      "inputs": [
        {
          "indexed": false,
          "internalType": "address",
          "name": "requester",
          "type": "address"
        },
        {
          "indexed": false,
          "internalType": "uint256",
          "name": "index",
          "type": "uint256"
        }
      ],
      "name": "SampleRequestResult",
      "type": "event"
    },
    {
      "inputs": [],
      "name": "_owner",
      "outputs": [
        {
          "internalType": "address",
          "name": "",
          "type": "address"
        }
      ],
      "stateMutability": "view",
      "type": "function",
      "constant": true
    },
    {
      "inputs": [],
      "name": "isOwner",
      "outputs": [
        {
          "internalType": "bool",
          "name": "",
          "type": "bool"
        }
      ],
      "stateMutability": "view",
      "type": "function",
      "constant": true
    },
    {
      "inputs": [
        {
          "internalType": "string",
          "name": "_id",
          "type": "string"
        }
      ],
      "name": "registerUser",
      "outputs": [],
      "stateMutability": "nonpayable",
      "type": "function"
    },
    {
      "inputs": [
        {
          "internalType": "bytes32",
          "name": "",
          "type": "bytes32"
        }
      ],
      "name": "registeredUsers",
      "outputs": [
        {
          "internalType": "bool",
          "name": "",
          "type": "bool"
        }
      ],
      "stateMutability": "view",
      "type": "function",
      "constant": true
    },
    {
      "inputs": [
        {
          "internalType": "bytes32",
          "name": "",
          "type": "bytes32"
        },
        {
          "internalType": "uint256",
          "name": "",
          "type": "uint256"
        }
      ],
      "name": "sampleRequests",
      "outputs": [
        {
          "internalType": "bytes32",
          "name": "",
          "type": "bytes32"
        }
      ],
      "stateMutability": "view",
      "type": "function",
      "constant": true
    },
    {
      "inputs": [
        {
          "internalType": "string",
          "name": "_userId",
          "type": "string"
        },
        {
          "internalType": "string",
          "name": "_packetId",
          "type": "string"
        },
        {
          "internalType": "string[]",
          "name": "_keys",
          "type": "string[]"
        }
      ],
      "name": "addSampleRequest",
      "outputs": [],
      "stateMutability": "nonpayable",
      "type": "function"
    },
    {
      "inputs": [
        {
          "internalType": "bytes32",
          "name": "sampleRequestId",
          "type": "bytes32"
        }
      ],
      "name": "getSampleRequestKeys",
      "outputs": [
        {
          "internalType": "bytes32[]",
          "name": "",
          "type": "bytes32[]"
        }
      ],
      "stateMutability": "view",
      "type": "function",
      "constant": true
    }
  ],
  "bytecode": "0x608060405234801561001057600080fd5b50336000806101000a81548173ffffffffffffffffffffffffffffffffffffffff021916908373ffffffffffffffffffffffffffffffffffffffff160217905550610ecf806100606000396000f3fe608060405234801561001057600080fd5b506004361061007d5760003560e01c80639b5c93cd1161005b5780639b5c93cd146100ec578063b2bdfa7b14610108578063c137b55114610126578063d68557ae146101565761007d565b806367c8753b14610082578063704f1b94146100b25780638f32d59b146100ce575b600080fd5b61009c60048036038101906100979190610705565b610186565b6040516100a99190610a8d565b60405180910390f35b6100cc60048036038101906100c79190610741565b6101b7565b005b6100d6610252565b6040516100e39190610a72565b60405180910390f35b61010660048036038101906101019190610782565b6102a9565b005b610110610488565b60405161011d9190610a0c565b60405180910390f35b610140600480360381019061013b91906106dc565b6104ac565b60405161014d9190610a50565b60405180910390f35b610170600480360381019061016b91906106dc565b610517565b60405161017d9190610a72565b60405180910390f35b600260205281600052604060002081815481106101a257600080fd5b90600052602060002001600091509150505481565b6101bf610252565b6101fe576040517f08c379a00000000000000000000000000000000000000000000000000000000081526004016101f590610ac8565b60405180910390fd5b600180600083604051602001610214919061097f565b60405160208183030381529060405280519060200120815260200190815260200160002060006101000a81548160ff02191690831515021790555050565b60008060009054906101000a900473ffffffffffffffffffffffffffffffffffffffff1673ffffffffffffffffffffffffffffffffffffffff163373ffffffffffffffffffffffffffffffffffffffff1614905090565b826001151560016000836040516020016102c3919061097f565b60405160208183030381529060405280519060200120815260200190815260200160002060009054906101000a900460ff16151514610337576040517f08c379a000000000000000000000000000000000000000000000000000000000815260040161032e90610aa8565b60405180910390fd5b6000833360405160200161034c929190610996565b60405160208183030381529060405280519060200120905060005b83518160ff1610156104295760026000838152602001908152602001600020848260ff16815181106103c2577f4e487b7100000000000000000000000000000000000000000000000000000000600052603260045260246000fd5b60200260200101516040516020016103da919061097f565b604051602081830303815290604052805190602001209080600181540180825580915050600190039060005260206000200160009091909190915055808061042190610ce5565b915050610367565b507f089aa10c109296bf82ebc419d1f7adbe9f9d3c367c6f43ceffb6aa1fadc918703361046b6002600085815260200190815260200160002080549050610537565b604051610479929190610a27565b60405180910390a15050505050565b60008054906101000a900473ffffffffffffffffffffffffffffffffffffffff1681565b60606002600083815260200190815260200160002080548060200260200160405190810160405280929190818152602001828054801561050b57602002820191906000526020600020905b8154815260200190600101908083116104f7575b50505050509050919050565b60016020528060005260406000206000915054906101000a900460ff1681565b6000808260035442443360405160200161055494939291906109be565b6040516020818303038152906040528051906020012060001c6105779190610d3d565b90506003600081548092919061058c90610c9c565b919050555080915050919050565b60006105ad6105a884610b0d565b610ae8565b905080838252602082019050828560208602820111156105cc57600080fd5b60005b8581101561061657813567ffffffffffffffff8111156105ee57600080fd5b8086016105fb898261069d565b855260208501945060208401935050506001810190506105cf565b5050509392505050565b600061063361062e84610b39565b610ae8565b90508281526020810184848401111561064b57600080fd5b610656848285610c29565b509392505050565b600082601f83011261066f57600080fd5b813561067f84826020860161059a565b91505092915050565b60008135905061069781610e6b565b92915050565b600082601f8301126106ae57600080fd5b81356106be848260208601610620565b91505092915050565b6000813590506106d681610e82565b92915050565b6000602082840312156106ee57600080fd5b60006106fc84828501610688565b91505092915050565b6000806040838503121561071857600080fd5b600061072685828601610688565b9250506020610737858286016106c7565b9150509250929050565b60006020828403121561075357600080fd5b600082013567ffffffffffffffff81111561076d57600080fd5b6107798482850161069d565b91505092915050565b60008060006060848603121561079757600080fd5b600084013567ffffffffffffffff8111156107b157600080fd5b6107bd8682870161069d565b935050602084013567ffffffffffffffff8111156107da57600080fd5b6107e68682870161069d565b925050604084013567ffffffffffffffff81111561080357600080fd5b61080f8682870161065e565b9150509250925092565b600061082583836108c4565b60208301905092915050565b61083a81610bca565b82525050565b61085161084c82610bca565b610d0f565b82525050565b600061086282610b7a565b61086c8185610b9d565b935061087783610b6a565b8060005b838110156108a857815161088f8882610819565b975061089a83610b90565b92505060018101905061087b565b5085935050505092915050565b6108be81610bdc565b82525050565b6108cd81610be8565b82525050565b6108dc81610be8565b82525050565b60006108ed82610b85565b6108f78185610bbf565b9350610907818560208601610c38565b80840191505092915050565b6000610920601683610bae565b915061092b82610e19565b602082019050919050565b6000610943602083610bae565b915061094e82610e42565b602082019050919050565b61096281610c12565b82525050565b61097961097482610c12565b610d33565b82525050565b600061098b82846108e2565b915081905092915050565b60006109a282856108e2565b91506109ae8284610840565b6014820191508190509392505050565b60006109ca8287610968565b6020820191506109da8286610968565b6020820191506109ea8285610968565b6020820191506109fa8284610840565b60148201915081905095945050505050565b6000602082019050610a216000830184610831565b92915050565b6000604082019050610a3c6000830185610831565b610a496020830184610959565b9392505050565b60006020820190508181036000830152610a6a8184610857565b905092915050565b6000602082019050610a8760008301846108b5565b92915050565b6000602082019050610aa260008301846108d3565b92915050565b60006020820190508181036000830152610ac181610913565b9050919050565b60006020820190508181036000830152610ae181610936565b9050919050565b6000610af2610b03565b9050610afe8282610c6b565b919050565b6000604051905090565b600067ffffffffffffffff821115610b2857610b27610dcc565b5b602082029050602081019050919050565b600067ffffffffffffffff821115610b5457610b53610dcc565b5b610b5d82610dfb565b9050602081019050919050565b6000819050602082019050919050565b600081519050919050565b600081519050919050565b6000602082019050919050565b600082825260208201905092915050565b600082825260208201905092915050565b600081905092915050565b6000610bd582610bf2565b9050919050565b60008115159050919050565b6000819050919050565b600073ffffffffffffffffffffffffffffffffffffffff82169050919050565b6000819050919050565b600060ff82169050919050565b82818337600083830152505050565b60005b83811015610c56578082015181840152602081019050610c3b565b83811115610c65576000848401525b50505050565b610c7482610dfb565b810181811067ffffffffffffffff82111715610c9357610c92610dcc565b5b80604052505050565b6000610ca782610c12565b91507fffffffffffffffffffffffffffffffffffffffffffffffffffffffffffffffff821415610cda57610cd9610d6e565b5b600182019050919050565b6000610cf082610c1c565b915060ff821415610d0457610d03610d6e565b5b600182019050919050565b6000610d1a82610d21565b9050919050565b6000610d2c82610e0c565b9050919050565b6000819050919050565b6000610d4882610c12565b9150610d5383610c12565b925082610d6357610d62610d9d565b5b828206905092915050565b7f4e487b7100000000000000000000000000000000000000000000000000000000600052601160045260246000fd5b7f4e487b7100000000000000000000000000000000000000000000000000000000600052601260045260246000fd5b7f4e487b7100000000000000000000000000000000000000000000000000000000600052604160045260246000fd5b6000601f19601f8301169050919050565b60008160601b9050919050565b7f55736572206973206e6f74207265676973746572656400000000000000000000600082015250565b7f4f776e61626c653a2063616c6c6572206973206e6f7420746865206f776e6572600082015250565b610e7481610be8565b8114610e7f57600080fd5b50565b610e8b81610c12565b8114610e9657600080fd5b5056fea26469706673582212200d3d5cae4d2c493b7710beab61b993bfef3d777db4a1091803f823311124250f64736f6c63430008040033",
  "immutableReferences": {},
  "source": "pragma solidity 0.8.4;\r\n\r\nimport \"./Registry.sol\";\r\n\r\ncontract SampleContract is Registry {\r\n    mapping(bytes32 => bytes32[]) public sampleRequests;\r\n    uint256 nonce;\r\n\r\n    event SampleRequestResult(address requester, uint256 index);\r\n\r\n    function addSampleRequest(\r\n        string memory _userId,\r\n        string memory _packetId,\r\n        string[] memory _keys\r\n    ) public registered(_userId) {\r\n        bytes32 index = keccak256(abi.encodePacked(_packetId, msg.sender));\r\n        for (uint8 i = 0; i < _keys.length; i++) {\r\n            sampleRequests[index].push(keccak256(abi.encodePacked(_keys[i])));\r\n        }\r\n        emit SampleRequestResult(\r\n            msg.sender,\r\n            getRandomKeyIndexTest(sampleRequests[index].length)\r\n        );\r\n    }\r\n\r\n    function getSampleRequestKeys(bytes32 sampleRequestId)\r\n        public\r\n        view\r\n        returns (bytes32[] memory)\r\n    {\r\n        return sampleRequests[sampleRequestId];\r\n    }\r\n\r\n    function getRandomKeyIndexTest(uint256 mod) internal returns (uint256) {\r\n        uint256 rand =\r\n            uint256(\r\n                keccak256(\r\n                    abi.encodePacked(\r\n                        nonce,\r\n                        block.timestamp,\r\n                        block.difficulty,\r\n                        msg.sender\r\n                    )\r\n                )\r\n            ) % mod;\r\n        nonce++;\r\n        return rand;\r\n    }\r\n}\r\n",
  "sourcePath": "C:/Users/vaspa/Desktop/Files/test/contracts/SampleContract.sol",
  "compiler": {
    "name": "solc",
    "version": "0.8.4+commit.c7e474f2.Emscripten.clang"
  },
  "schemaVersion": "3.4.0",
  "updatedAt": "2021-05-07T19:29:15.621Z",
  "networkType": "ethereum",
  "devdoc": {
    "kind": "dev",
    "methods": {},
    "version": 1
  },
  "userdoc": {
    "kind": "user",
    "methods": {},
    "version": 1
  }
}