{
  "contractName": "UploadContract",
  "abi": [
    {
      "anonymous": false,
      "inputs": [
        {
          "indexed": false,
          "internalType": "bool",
          "name": "_isRegistered",
          "type": "bool"
        }
      ],
      "name": "Check",
      "type": "event"
    },
    {
      "anonymous": false,
      "inputs": [
        {
          "indexed": false,
          "internalType": "string",
          "name": "_id",
          "type": "string"
        }
      ],
      "name": "Register",
      "type": "event"
    },
    {
      "anonymous": false,
      "inputs": [
        {
          "components": [
            {
              "internalType": "address",
              "name": "ownerAddress",
              "type": "address"
            },
            {
              "internalType": "bytes32[]",
              "name": "ipfsHashes",
              "type": "bytes32[]"
            }
          ],
          "indexed": false,
          "internalType": "struct UploadContract.UploadPacket",
          "name": "upload",
          "type": "tuple"
        }
      ],
      "name": "UploadResult",
      "type": "event"
    },
    {
      "inputs": [],
      "name": "_owner",
      "outputs": [
        {
          "internalType": "address",
          "name": "",
          "type": "address"
        }
      ],
      "stateMutability": "view",
      "type": "function",
      "constant": true
    },
    {
      "inputs": [
        {
          "internalType": "string",
          "name": "_id",
          "type": "string"
        }
      ],
      "name": "getRegisterUsers",
      "outputs": [],
      "stateMutability": "nonpayable",
      "type": "function"
    },
    {
      "inputs": [],
      "name": "isOwner",
      "outputs": [
        {
          "internalType": "bool",
          "name": "",
          "type": "bool"
        }
      ],
      "stateMutability": "view",
      "type": "function",
      "constant": true
    },
    {
      "inputs": [
        {
          "internalType": "string",
          "name": "_id",
          "type": "string"
        }
      ],
      "name": "registerUser",
      "outputs": [],
      "stateMutability": "nonpayable",
      "type": "function"
    },
    {
      "inputs": [
        {
          "internalType": "bytes32",
          "name": "",
          "type": "bytes32"
        }
      ],
      "name": "registeredUsers",
      "outputs": [
        {
          "internalType": "bool",
          "name": "",
          "type": "bool"
        }
      ],
      "stateMutability": "view",
      "type": "function",
      "constant": true
    },
    {
      "inputs": [
        {
          "internalType": "bytes32",
          "name": "",
          "type": "bytes32"
        }
      ],
      "name": "uploads",
      "outputs": [
        {
          "internalType": "address",
          "name": "ownerAddress",
          "type": "address"
        }
      ],
      "stateMutability": "view",
      "type": "function",
      "constant": true
    },
    {
      "inputs": [
        {
          "internalType": "string",
          "name": "_userId",
          "type": "string"
        },
        {
          "internalType": "string",
          "name": "_packetId",
          "type": "string"
        },
        {
          "internalType": "string[]",
          "name": "_ipfsHashes",
          "type": "string[]"
        }
      ],
      "name": "addUpload",
      "outputs": [],
      "stateMutability": "nonpayable",
      "type": "function"
    },
    {
      "inputs": [
        {
          "internalType": "string",
          "name": "_packetId",
          "type": "string"
        }
      ],
      "name": "getUploadPacket",
      "outputs": [
        {
          "components": [
            {
              "internalType": "address",
              "name": "ownerAddress",
              "type": "address"
            },
            {
              "internalType": "bytes32[]",
              "name": "ipfsHashes",
              "type": "bytes32[]"
            }
          ],
          "internalType": "struct UploadContract.UploadPacket",
          "name": "",
          "type": "tuple"
        }
      ],
      "stateMutability": "view",
      "type": "function",
      "constant": true
    },
    {
      "inputs": [
        {
          "internalType": "string",
          "name": "_packetId",
          "type": "string"
        }
      ],
      "name": "getUploadPacketIPFSHashes",
      "outputs": [
        {
          "internalType": "bytes32[]",
          "name": "",
          "type": "bytes32[]"
        }
      ],
      "stateMutability": "view",
      "type": "function",
      "constant": true
    },
    {
      "inputs": [
        {
          "internalType": "string",
          "name": "_packetId",
          "type": "string"
        }
      ],
      "name": "getUploadPacketOwnerAddress",
      "outputs": [
        {
          "internalType": "address",
          "name": "",
          "type": "address"
        }
      ],
      "stateMutability": "view",
      "type": "function",
      "constant": true
    }
  ],
  "bytecode": "0x608060405234801561001057600080fd5b50336000806101000a81548173ffffffffffffffffffffffffffffffffffffffff021916908373ffffffffffffffffffffffffffffffffffffffff16021790555061123d806100606000396000f3fe608060405234801561001057600080fd5b506004361061009e5760003560e01c806397b130bf1161006657806397b130bf14610159578063b2bdfa7b14610189578063c0302cdd146101a7578063d0c588be146101c3578063d68557ae146101f35761009e565b80632e85e54a146100a357806346795df3146100d35780636bf22a4b14610103578063704f1b941461011f5780638f32d59b1461013b575b600080fd5b6100bd60048036038101906100b89190610a07565b610223565b6040516100ca9190610e5b565b60405180910390f35b6100ed60048036038101906100e89190610a07565b61032a565b6040516100fa9190610da1565b60405180910390f35b61011d60048036038101906101189190610a07565b610395565b005b61013960048036038101906101349190610a07565b610415565b005b6101436104e7565b6040516101509190610dde565b60405180910390f35b610173600480360381019061016e91906109de565b61053e565b6040516101809190610da1565b60405180910390f35b61019161057c565b60405161019e9190610da1565b60405180910390f35b6101c160048036038101906101bc9190610a48565b6105a0565b005b6101dd60048036038101906101d89190610a07565b6107c7565b6040516101ea9190610dbc565b60405180910390f35b61020d600480360381019061020891906109de565b610861565b60405161021a9190610dde565b60405180910390f35b61022b610881565b60008260405160200161023e9190610d8a565b604051602081830303815290604052805190602001209050600260008281526020019081526020016000206040518060400160405290816000820160009054906101000a900473ffffffffffffffffffffffffffffffffffffffff1673ffffffffffffffffffffffffffffffffffffffff1673ffffffffffffffffffffffffffffffffffffffff1681526020016001820180548060200260200160405190810160405280929190818152602001828054801561031957602002820191906000526020600020905b815481526020019060010190808311610305575b505050505081525050915050919050565b6000808260405160200161033e9190610d8a565b6040516020818303038152906040528051906020012090506002600082815260200190815260200160002060000160009054906101000a900473ffffffffffffffffffffffffffffffffffffffff16915050919050565b7f0f806f3a69aebe25b6129d19609333999fb4d2aed709217d19e0465d3bf3e72e60016000836040516020016103cb9190610d8a565b60405160208183030381529060405280519060200120815260200190815260200160002060009054906101000a900460ff1660405161040a9190610dde565b60405180910390a150565b61041d6104e7565b61045c576040517f08c379a000000000000000000000000000000000000000000000000000000000815260040161045390610e3b565b60405180910390fd5b6001806000836040516020016104729190610d8a565b60405160208183030381529060405280519060200120815260200190815260200160002060006101000a81548160ff0219169083151502179055507f40b2d3af7e7a908ab771e3b293d2df299bb187d4ac2dcb3dbc2455fdcf5c15dd816040516104dc9190610df9565b60405180910390a150565b60008060009054906101000a900473ffffffffffffffffffffffffffffffffffffffff1673ffffffffffffffffffffffffffffffffffffffff163373ffffffffffffffffffffffffffffffffffffffff1614905090565b60026020528060005260406000206000915090508060000160009054906101000a900473ffffffffffffffffffffffffffffffffffffffff16905081565b60008054906101000a900473ffffffffffffffffffffffffffffffffffffffff1681565b826001151560016000836040516020016105ba9190610d8a565b60405160208183030381529060405280519060200120815260200190815260200160002060009054906101000a900460ff1615151461062e576040517f08c379a000000000000000000000000000000000000000000000000000000000815260040161062590610e1b565b60405180910390fd5b6000836040516020016106419190610d8a565b604051602081830303815290604052805190602001209050336002600083815260200190815260200160002060000160006101000a81548173ffffffffffffffffffffffffffffffffffffffff021916908373ffffffffffffffffffffffffffffffffffffffff16021790555060005b83518160ff1610156107765760026000838152602001908152602001600020600101848260ff168151811061070f577f4e487b7100000000000000000000000000000000000000000000000000000000600052603260045260246000fd5b60200260200101516040516020016107279190610d8a565b604051602081830303815290604052805190602001209080600181540180825580915050600190039060005260206000200160009091909190915055808061076e906110e5565b9150506106b1565b507fc59c4d1cd4ae4f11cae4ccbb4e183300a420933d7f279b19394c9005352c4f85600260008381526020019081526020016000206040516107b89190610e7d565b60405180910390a15050505050565b60606000826040516020016107dc9190610d8a565b6040516020818303038152906040528051906020012090506002600082815260200190815260200160002060010180548060200260200160405190810160405280929190818152602001828054801561085457602002820191906000526020600020905b815481526020019060010190808311610840575b5050505050915050919050565b60016020528060005260406000206000915054906101000a900460ff1681565b6040518060400160405280600073ffffffffffffffffffffffffffffffffffffffff168152602001606081525090565b60006108c46108bf84610ec4565b610e9f565b905080838252602082019050828560208602820111156108e357600080fd5b60005b8581101561092d57813567ffffffffffffffff81111561090557600080fd5b80860161091289826109b4565b855260208501945060208401935050506001810190506108e6565b5050509392505050565b600061094a61094584610ef0565b610e9f565b90508281526020810184848401111561096257600080fd5b61096d84828561103e565b509392505050565b600082601f83011261098657600080fd5b81356109968482602086016108b1565b91505092915050565b6000813590506109ae816111f0565b92915050565b600082601f8301126109c557600080fd5b81356109d5848260208601610937565b91505092915050565b6000602082840312156109f057600080fd5b60006109fe8482850161099f565b91505092915050565b600060208284031215610a1957600080fd5b600082013567ffffffffffffffff811115610a3357600080fd5b610a3f848285016109b4565b91505092915050565b600080600060608486031215610a5d57600080fd5b600084013567ffffffffffffffff811115610a7757600080fd5b610a83868287016109b4565b935050602084013567ffffffffffffffff811115610aa057600080fd5b610aac868287016109b4565b925050604084013567ffffffffffffffff811115610ac957600080fd5b610ad586828701610975565b9150509250925092565b6000610aeb8383610c45565b60208301905092915050565b610b0081610fe9565b82525050565b610b0f81610fe9565b82525050565b6000610b2082610f46565b610b2a8185610f81565b9350610b3583610f21565b8060005b83811015610b66578151610b4d8882610adf565b9750610b5883610f67565b925050600181019050610b39565b5085935050505092915050565b6000610b7e82610f46565b610b888185610f92565b9350610b9383610f21565b8060005b83811015610bc4578151610bab8882610adf565b9750610bb683610f67565b925050600181019050610b97565b5085935050505092915050565b6000610bdc82610f51565b610be68185610f81565b9350610bf183610f31565b8060005b83811015610c2957610c068261116d565b610c108882610adf565b9750610c1b83610f74565b925050600181019050610bf5565b5085935050505092915050565b610c3f81610ffb565b82525050565b610c4e81611007565b82525050565b6000610c5f82610f5c565b610c698185610fa3565b9350610c7981856020860161104d565b610c8281611180565b840191505092915050565b6000610c9882610f5c565b610ca28185610fb4565b9350610cb281856020860161104d565b80840191505092915050565b6000610ccb601683610fa3565b9150610cd68261119e565b602082019050919050565b6000610cee602083610fa3565b9150610cf9826111c7565b602082019050919050565b6000604083016000830151610d1c6000860182610af7565b5060208301518482036020860152610d348282610b15565b9150508091505092915050565b6000604083016000808401549050610d5881611080565b610d656000870182610af7565b50600184018583036020870152610d7c8382610bd1565b925050819250505092915050565b6000610d968284610c8d565b915081905092915050565b6000602082019050610db66000830184610b06565b92915050565b60006020820190508181036000830152610dd68184610b73565b905092915050565b6000602082019050610df36000830184610c36565b92915050565b60006020820190508181036000830152610e138184610c54565b905092915050565b60006020820190508181036000830152610e3481610cbe565b9050919050565b60006020820190508181036000830152610e5481610ce1565b9050919050565b60006020820190508181036000830152610e758184610d04565b905092915050565b60006020820190508181036000830152610e978184610d41565b905092915050565b6000610ea9610eba565b9050610eb582826110b4565b919050565b6000604051905090565b600067ffffffffffffffff821115610edf57610ede61113e565b5b602082029050602081019050919050565b600067ffffffffffffffff821115610f0b57610f0a61113e565b5b610f1482611180565b9050602081019050919050565b6000819050602082019050919050565b60008190508160005260206000209050919050565b600081519050919050565b600081549050919050565b600081519050919050565b6000602082019050919050565b6000600182019050919050565b600082825260208201905092915050565b600082825260208201905092915050565b600082825260208201905092915050565b600081905092915050565b600073ffffffffffffffffffffffffffffffffffffffff82169050919050565b6000819050919050565b6000610ff482611011565b9050919050565b60008115159050919050565b6000819050919050565b600073ffffffffffffffffffffffffffffffffffffffff82169050919050565b600060ff82169050919050565b82818337600083830152505050565b60005b8381101561106b578082015181840152602081019050611050565b8381111561107a576000848401525b50505050565b600061109361108e83611191565b610fbf565b9050919050565b60006110ad6110a883611191565b610fdf565b9050919050565b6110bd82611180565b810181811067ffffffffffffffff821117156110dc576110db61113e565b5b80604052505050565b60006110f082611031565b915060ff8214156111045761110361110f565b5b600182019050919050565b7f4e487b7100000000000000000000000000000000000000000000000000000000600052601160045260246000fd5b7f4e487b7100000000000000000000000000000000000000000000000000000000600052604160045260246000fd5b6000611179825461109a565b9050919050565b6000601f19601f8301169050919050565b60008160001c9050919050565b7f55736572206973206e6f74207265676973746572656400000000000000000000600082015250565b7f4f776e61626c653a2063616c6c6572206973206e6f7420746865206f776e6572600082015250565b6111f981611007565b811461120457600080fd5b5056fea264697066735822122041caff4b1556ff8adc599a9c14726fe0907ac3e8be9e31c35befaf9a43d0603c64736f6c63430008040033",
  "immutableReferences": {},
  "source": "pragma solidity 0.8.4;\r\n\r\nimport \"./Registry.sol\";\r\n\r\ncontract UploadContract is Registry {\r\n    struct UploadPacket {\r\n        address ownerAddress;\r\n        bytes32[] ipfsHashes;\r\n    }\r\n\r\n    mapping(bytes32 => UploadPacket) public uploads;\r\n\r\n    event UploadResult(UploadPacket upload);\r\n\r\n    function addUpload(\r\n        string memory _userId,\r\n        string memory _packetId,\r\n        string[] memory _ipfsHashes\r\n    ) public registered(_userId) {\r\n        bytes32 index = keccak256(abi.encodePacked(_packetId));\r\n        uploads[index].ownerAddress = msg.sender;\r\n\r\n        for (uint8 i = 0; i < _ipfsHashes.length; i++) {\r\n            uploads[index].ipfsHashes.push(\r\n                keccak256(abi.encodePacked(_ipfsHashes[i]))\r\n            );\r\n        }\r\n\r\n        emit UploadResult(uploads[index]);\r\n    }\r\n\r\n    function getUploadPacket(string memory _packetId)\r\n        public\r\n        view\r\n        returns (UploadPacket memory)\r\n    {\r\n        bytes32 index = keccak256(abi.encodePacked(_packetId));\r\n        return uploads[index];\r\n    }\r\n\r\n    function getUploadPacketIPFSHashes(string memory _packetId)\r\n        public\r\n        view\r\n        returns (bytes32[] memory)\r\n    {\r\n        bytes32 index = keccak256(abi.encodePacked(_packetId));\r\n        return uploads[index].ipfsHashes;\r\n    }\r\n\r\n    function getUploadPacketOwnerAddress(string memory _packetId)\r\n        public\r\n        view\r\n        returns (address)\r\n    {\r\n        bytes32 index = keccak256(abi.encodePacked(_packetId));\r\n        return uploads[index].ownerAddress;\r\n    }\r\n}\r\n",
  "sourcePath": "C:/Users/vaspa/Desktop/Files/test/contracts/UploadContract.sol",
  "compiler": {
    "name": "solc",
    "version": "0.8.4+commit.c7e474f2.Emscripten.clang"
  },
  "schemaVersion": "3.4.0",
  "updatedAt": "2021-05-07T19:29:15.635Z",
  "networkType": "ethereum",
  "devdoc": {
    "kind": "dev",
    "methods": {},
    "version": 1
  },
  "userdoc": {
    "kind": "user",
    "methods": {},
    "version": 1
  }
}